{
	"contracts/Crowdfunding.sol": {
		"Crowdfunding": {
			"abi": [
				{
					"inputs": [
						{
							"internalType": "address",
							"name": "_commissionContract",
							"type": "address"
						}
					],
					"stateMutability": "nonpayable",
					"type": "constructor"
				},
				{
					"anonymous": false,
					"inputs": [
						{
							"indexed": false,
							"internalType": "uint256",
							"name": "projectId",
							"type": "uint256"
						},
						{
							"indexed": false,
							"internalType": "uint256",
							"name": "newDeadline",
							"type": "uint256"
						}
					],
					"name": "DeadlineExtended",
					"type": "event"
				},
				{
					"anonymous": false,
					"inputs": [
						{
							"indexed": false,
							"internalType": "uint256",
							"name": "projectId",
							"type": "uint256"
						},
						{
							"indexed": false,
							"internalType": "address",
							"name": "creator",
							"type": "address"
						},
						{
							"indexed": false,
							"internalType": "uint256",
							"name": "goalAmount",
							"type": "uint256"
						},
						{
							"indexed": false,
							"internalType": "uint256",
							"name": "deadline",
							"type": "uint256"
						}
					],
					"name": "ProjectCreated",
					"type": "event"
				},
				{
					"anonymous": false,
					"inputs": [
						{
							"indexed": false,
							"internalType": "uint256",
							"name": "projectId",
							"type": "uint256"
						},
						{
							"indexed": false,
							"internalType": "address",
							"name": "funder",
							"type": "address"
						},
						{
							"indexed": false,
							"internalType": "uint256",
							"name": "amount",
							"type": "uint256"
						},
						{
							"indexed": false,
							"internalType": "uint256",
							"name": "commission",
							"type": "uint256"
						}
					],
					"name": "ProjectFunded",
					"type": "event"
				},
				{
					"inputs": [],
					"name": "admin",
					"outputs": [
						{
							"internalType": "address",
							"name": "",
							"type": "address"
						}
					],
					"stateMutability": "view",
					"type": "function"
				},
				{
					"inputs": [
						{
							"internalType": "uint256",
							"name": "_projectId",
							"type": "uint256"
						}
					],
					"name": "checkProjectFundingStatus",
					"outputs": [],
					"stateMutability": "nonpayable",
					"type": "function"
				},
				{
					"inputs": [],
					"name": "commissionContract",
					"outputs": [
						{
							"internalType": "contract Commission",
							"name": "",
							"type": "address"
						}
					],
					"stateMutability": "view",
					"type": "function"
				},
				{
					"inputs": [
						{
							"internalType": "uint256",
							"name": "_goalAmount",
							"type": "uint256"
						},
						{
							"internalType": "uint256",
							"name": "_deadline",
							"type": "uint256"
						}
					],
					"name": "createProject",
					"outputs": [],
					"stateMutability": "nonpayable",
					"type": "function"
				},
				{
					"inputs": [
						{
							"internalType": "uint256",
							"name": "_projectId",
							"type": "uint256"
						},
						{
							"internalType": "uint256",
							"name": "_newDeadline",
							"type": "uint256"
						}
					],
					"name": "extendDeadline",
					"outputs": [],
					"stateMutability": "nonpayable",
					"type": "function"
				},
				{
					"inputs": [],
					"name": "failedProjects",
					"outputs": [
						{
							"internalType": "uint256",
							"name": "",
							"type": "uint256"
						}
					],
					"stateMutability": "view",
					"type": "function"
				},
				{
					"inputs": [
						{
							"internalType": "uint256",
							"name": "_projectId",
							"type": "uint256"
						}
					],
					"name": "fundProject",
					"outputs": [],
					"stateMutability": "payable",
					"type": "function"
				},
				{
					"inputs": [],
					"name": "getFailedProjectsCount",
					"outputs": [
						{
							"internalType": "uint256",
							"name": "",
							"type": "uint256"
						}
					],
					"stateMutability": "view",
					"type": "function"
				},
				{
					"inputs": [],
					"name": "getSuccessfulProjectsCount",
					"outputs": [
						{
							"internalType": "uint256",
							"name": "",
							"type": "uint256"
						}
					],
					"stateMutability": "view",
					"type": "function"
				},
				{
					"inputs": [
						{
							"internalType": "uint256",
							"name": "",
							"type": "uint256"
						}
					],
					"name": "projects",
					"outputs": [
						{
							"internalType": "address",
							"name": "creator",
							"type": "address"
						},
						{
							"internalType": "uint256",
							"name": "goalAmount",
							"type": "uint256"
						},
						{
							"internalType": "uint256",
							"name": "currentAmount",
							"type": "uint256"
						},
						{
							"internalType": "uint256",
							"name": "deadline",
							"type": "uint256"
						},
						{
							"internalType": "bool",
							"name": "isFunded",
							"type": "bool"
						},
						{
							"internalType": "address",
							"name": "highestFunder",
							"type": "address"
						},
						{
							"internalType": "uint256",
							"name": "highestFundAmount",
							"type": "uint256"
						}
					],
					"stateMutability": "view",
					"type": "function"
				},
				{
					"inputs": [
						{
							"internalType": "address",
							"name": "",
							"type": "address"
						}
					],
					"name": "projectsCreated",
					"outputs": [
						{
							"internalType": "uint256",
							"name": "",
							"type": "uint256"
						}
					],
					"stateMutability": "view",
					"type": "function"
				},
				{
					"inputs": [],
					"name": "successfulProjects",
					"outputs": [
						{
							"internalType": "uint256",
							"name": "",
							"type": "uint256"
						}
					],
					"stateMutability": "view",
					"type": "function"
				},
				{
					"inputs": [],
					"name": "totalProjects",
					"outputs": [
						{
							"internalType": "uint256",
							"name": "",
							"type": "uint256"
						}
					],
					"stateMutability": "view",
					"type": "function"
				}
			],
			"devdoc": {
				"kind": "dev",
				"methods": {},
				"version": 1
			},
			"evm": {
				"assembly": "    /* \"contracts/Crowdfunding.sol\":529:3998  contract Crowdfunding {... */\n  mstore(0x40, 0x80)\n    /* \"contracts/Crowdfunding.sol\":1356:1506  constructor(address _commissionContract) {... */\n  callvalue\n  dup1\n  iszero\n  tag_1\n  jumpi\n  0x00\n  dup1\n  revert\ntag_1:\n  pop\n  mload(0x40)\n  sub(codesize, bytecodeSize)\n  dup1\n  bytecodeSize\n  dup4\n  codecopy\n  dup2\n  dup2\n  add\n  0x40\n  mstore\n  dup2\n  add\n  swap1\n  tag_2\n  swap2\n  swap1\n  tag_3\n  jump\t// in\ntag_2:\n    /* \"contracts/Crowdfunding.sol\":1416:1426  msg.sender */\n  caller\n    /* \"contracts/Crowdfunding.sol\":1408:1413  admin */\n  0x05\n  0x00\n    /* \"contracts/Crowdfunding.sol\":1408:1426  admin = msg.sender */\n  0x0100\n  exp\n  dup2\n  sload\n  dup2\n  0xffffffffffffffffffffffffffffffffffffffff\n  mul\n  not\n  and\n  swap1\n  dup4\n  0xffffffffffffffffffffffffffffffffffffffff\n  and\n  mul\n  or\n  swap1\n  sstore\n  pop\n    /* \"contracts/Crowdfunding.sol\":1477:1496  _commissionContract */\n  dup1\n    /* \"contracts/Crowdfunding.sol\":1437:1455  commissionContract */\n  0x06\n  0x00\n    /* \"contracts/Crowdfunding.sol\":1437:1498  commissionContract = Commission(payable(_commissionContract)) */\n  0x0100\n  exp\n  dup2\n  sload\n  dup2\n  0xffffffffffffffffffffffffffffffffffffffff\n  mul\n  not\n  and\n  swap1\n  dup4\n  0xffffffffffffffffffffffffffffffffffffffff\n  and\n  mul\n  or\n  swap1\n  sstore\n  pop\n    /* \"contracts/Crowdfunding.sol\":1356:1506  constructor(address _commissionContract) {... */\n  pop\n    /* \"contracts/Crowdfunding.sol\":529:3998  contract Crowdfunding {... */\n  jump(tag_6)\n    /* \"#utility.yul\":88:205   */\ntag_8:\n    /* \"#utility.yul\":197:198   */\n  0x00\n    /* \"#utility.yul\":194:195   */\n  dup1\n    /* \"#utility.yul\":187:199   */\n  revert\n    /* \"#utility.yul\":334:460   */\ntag_10:\n    /* \"#utility.yul\":371:378   */\n  0x00\n    /* \"#utility.yul\":411:453   */\n  0xffffffffffffffffffffffffffffffffffffffff\n    /* \"#utility.yul\":404:409   */\n  dup3\n    /* \"#utility.yul\":400:454   */\n  and\n    /* \"#utility.yul\":389:454   */\n  swap1\n  pop\n    /* \"#utility.yul\":334:460   */\n  swap2\n  swap1\n  pop\n  jump\t// out\n    /* \"#utility.yul\":466:562   */\ntag_11:\n    /* \"#utility.yul\":503:510   */\n  0x00\n    /* \"#utility.yul\":532:556   */\n  tag_20\n    /* \"#utility.yul\":550:555   */\n  dup3\n    /* \"#utility.yul\":532:556   */\n  tag_10\n  jump\t// in\ntag_20:\n    /* \"#utility.yul\":521:556   */\n  swap1\n  pop\n    /* \"#utility.yul\":466:562   */\n  swap2\n  swap1\n  pop\n  jump\t// out\n    /* \"#utility.yul\":568:690   */\ntag_12:\n    /* \"#utility.yul\":641:665   */\n  tag_22\n    /* \"#utility.yul\":659:664   */\n  dup2\n    /* \"#utility.yul\":641:665   */\n  tag_11\n  jump\t// in\ntag_22:\n    /* \"#utility.yul\":634:639   */\n  dup2\n    /* \"#utility.yul\":631:666   */\n  eq\n    /* \"#utility.yul\":621:684   */\n  tag_23\n  jumpi\n    /* \"#utility.yul\":680:681   */\n  0x00\n    /* \"#utility.yul\":677:678   */\n  dup1\n    /* \"#utility.yul\":670:682   */\n  revert\n    /* \"#utility.yul\":621:684   */\ntag_23:\n    /* \"#utility.yul\":568:690   */\n  pop\n  jump\t// out\n    /* \"#utility.yul\":696:839   */\ntag_13:\n    /* \"#utility.yul\":753:758   */\n  0x00\n    /* \"#utility.yul\":784:790   */\n  dup2\n    /* \"#utility.yul\":778:791   */\n  mload\n    /* \"#utility.yul\":769:791   */\n  swap1\n  pop\n    /* \"#utility.yul\":800:833   */\n  tag_25\n    /* \"#utility.yul\":827:832   */\n  dup2\n    /* \"#utility.yul\":800:833   */\n  tag_12\n  jump\t// in\ntag_25:\n    /* \"#utility.yul\":696:839   */\n  swap3\n  swap2\n  pop\n  pop\n  jump\t// out\n    /* \"#utility.yul\":845:1196   */\ntag_3:\n    /* \"#utility.yul\":915:921   */\n  0x00\n    /* \"#utility.yul\":964:966   */\n  0x20\n    /* \"#utility.yul\":952:961   */\n  dup3\n    /* \"#utility.yul\":943:950   */\n  dup5\n    /* \"#utility.yul\":939:962   */\n  sub\n    /* \"#utility.yul\":935:967   */\n  slt\n    /* \"#utility.yul\":932:1051   */\n  iszero\n  tag_27\n  jumpi\n    /* \"#utility.yul\":970:1049   */\n  tag_28\n  tag_8\n  jump\t// in\ntag_28:\n    /* \"#utility.yul\":932:1051   */\ntag_27:\n    /* \"#utility.yul\":1090:1091   */\n  0x00\n    /* \"#utility.yul\":1115:1179   */\n  tag_29\n    /* \"#utility.yul\":1171:1178   */\n  dup5\n    /* \"#utility.yul\":1162:1168   */\n  dup3\n    /* \"#utility.yul\":1151:1160   */\n  dup6\n    /* \"#utility.yul\":1147:1169   */\n  add\n    /* \"#utility.yul\":1115:1179   */\n  tag_13\n  jump\t// in\ntag_29:\n    /* \"#utility.yul\":1105:1179   */\n  swap2\n  pop\n    /* \"#utility.yul\":1061:1189   */\n  pop\n    /* \"#utility.yul\":845:1196   */\n  swap3\n  swap2\n  pop\n  pop\n  jump\t// out\n    /* \"contracts/Crowdfunding.sol\":529:3998  contract Crowdfunding {... */\ntag_6:\n  dataSize(sub_0)\n  dup1\n  dataOffset(sub_0)\n  0x00\n  codecopy\n  0x00\n  return\nstop\n\nsub_0: assembly {\n        /* \"contracts/Crowdfunding.sol\":529:3998  contract Crowdfunding {... */\n      mstore(0x40, 0x80)\n      jumpi(tag_1, lt(calldatasize, 0x04))\n      shr(0xe0, calldataload(0x00))\n      dup1\n      0x6c563abe\n      gt\n      tag_15\n      jumpi\n      dup1\n      0xa9769368\n      gt\n      tag_16\n      jumpi\n      dup1\n      0xa9769368\n      eq\n      tag_11\n      jumpi\n      dup1\n      0xa9cb357f\n      eq\n      tag_12\n      jumpi\n      dup1\n      0xda8909e5\n      eq\n      tag_13\n      jumpi\n      dup1\n      0xf851a440\n      eq\n      tag_14\n      jumpi\n      jump(tag_1)\n    tag_16:\n      dup1\n      0x6c563abe\n      eq\n      tag_8\n      jumpi\n      dup1\n      0x9c361e4e\n      eq\n      tag_9\n      jumpi\n      dup1\n      0x9e1896c6\n      eq\n      tag_10\n      jumpi\n      jump(tag_1)\n    tag_15:\n      dup1\n      0x02da667b\n      eq\n      tag_2\n      jumpi\n      dup1\n      0x107046bd\n      eq\n      tag_3\n      jumpi\n      dup1\n      0x12ffb7a7\n      eq\n      tag_4\n      jumpi\n      dup1\n      0x24a3b551\n      eq\n      tag_5\n      jumpi\n      dup1\n      0x26d55601\n      eq\n      tag_6\n      jumpi\n      dup1\n      0x2d1fdef6\n      eq\n      tag_7\n      jumpi\n    tag_1:\n      0x00\n      dup1\n      revert\n        /* \"contracts/Crowdfunding.sol\":1700:2221  function createProject(uint256 _goalAmount, uint256 _deadline) external {... */\n    tag_2:\n      callvalue\n      dup1\n      iszero\n      tag_17\n      jumpi\n      0x00\n      dup1\n      revert\n    tag_17:\n      pop\n      tag_18\n      0x04\n      dup1\n      calldatasize\n      sub\n      dup2\n      add\n      swap1\n      tag_19\n      swap2\n      swap1\n      tag_20\n      jump\t// in\n    tag_19:\n      tag_21\n      jump\t// in\n    tag_18:\n      stop\n        /* \"contracts/Crowdfunding.sol\":795:838  mapping(uint256 => Project) public projects */\n    tag_3:\n      callvalue\n      dup1\n      iszero\n      tag_22\n      jumpi\n      0x00\n      dup1\n      revert\n    tag_22:\n      pop\n      tag_23\n      0x04\n      dup1\n      calldatasize\n      sub\n      dup2\n      add\n      swap1\n      tag_24\n      swap2\n      swap1\n      tag_25\n      jump\t// in\n    tag_24:\n      tag_26\n      jump\t// in\n    tag_23:\n      mload(0x40)\n      tag_27\n      swap8\n      swap7\n      swap6\n      swap5\n      swap4\n      swap3\n      swap2\n      swap1\n      tag_28\n      jump\t// in\n    tag_27:\n      mload(0x40)\n      dup1\n      swap2\n      sub\n      swap1\n      return\n        /* \"contracts/Crowdfunding.sol\":3751:3995  function checkProjectFundingStatus(uint256 _projectId) external {... */\n    tag_4:\n      callvalue\n      dup1\n      iszero\n      tag_29\n      jumpi\n      0x00\n      dup1\n      revert\n    tag_29:\n      pop\n      tag_30\n      0x04\n      dup1\n      calldatasize\n      sub\n      dup2\n      add\n      swap1\n      tag_31\n      swap2\n      swap1\n      tag_25\n      jump\t// in\n    tag_31:\n      tag_32\n      jump\t// in\n    tag_30:\n      stop\n        /* \"contracts/Crowdfunding.sol\":3515:3629  function getSuccessfulProjectsCount() external view returns (uint256) {... */\n    tag_5:\n      callvalue\n      dup1\n      iszero\n      tag_33\n      jumpi\n      0x00\n      dup1\n      revert\n    tag_33:\n      pop\n      tag_34\n      tag_35\n      jump\t// in\n    tag_34:\n      mload(0x40)\n      tag_36\n      swap2\n      swap1\n      tag_37\n      jump\t// in\n    tag_36:\n      mload(0x40)\n      dup1\n      swap2\n      sub\n      swap1\n      return\n        /* \"contracts/Crowdfunding.sol\":3637:3743  function getFailedProjectsCount() external view returns (uint256) {... */\n    tag_6:\n      callvalue\n      dup1\n      iszero\n      tag_38\n      jumpi\n      0x00\n      dup1\n      revert\n    tag_38:\n      pop\n      tag_39\n      tag_40\n      jump\t// in\n    tag_39:\n      mload(0x40)\n      tag_41\n      swap2\n      swap1\n      tag_37\n      jump\t// in\n    tag_41:\n      mload(0x40)\n      dup1\n      swap2\n      sub\n      swap1\n      return\n        /* \"contracts/Crowdfunding.sol\":3129:3507  function extendDeadline(uint256 _projectId, uint256 _newDeadline) external onlyProjectCreator(_projectId) {... */\n    tag_7:\n      callvalue\n      dup1\n      iszero\n      tag_42\n      jumpi\n      0x00\n      dup1\n      revert\n    tag_42:\n      pop\n      tag_43\n      0x04\n      dup1\n      calldatasize\n      sub\n      dup2\n      add\n      swap1\n      tag_44\n      swap2\n      swap1\n      tag_20\n      jump\t// in\n    tag_44:\n      tag_45\n      jump\t// in\n    tag_43:\n      stop\n        /* \"contracts/Crowdfunding.sol\":2229:3121  function fundProject(uint256 _projectId) external payable {... */\n    tag_8:\n      tag_46\n      0x04\n      dup1\n      calldatasize\n      sub\n      dup2\n      add\n      swap1\n      tag_47\n      swap2\n      swap1\n      tag_25\n      jump\t// in\n    tag_47:\n      tag_48\n      jump\t// in\n    tag_46:\n      stop\n        /* \"contracts/Crowdfunding.sol\":902:930  uint256 public totalProjects */\n    tag_9:\n      callvalue\n      dup1\n      iszero\n      tag_49\n      jumpi\n      0x00\n      dup1\n      revert\n    tag_49:\n      pop\n      tag_50\n      tag_51\n      jump\t// in\n    tag_50:\n      mload(0x40)\n      tag_52\n      swap2\n      swap1\n      tag_37\n      jump\t// in\n    tag_52:\n      mload(0x40)\n      dup1\n      swap2\n      sub\n      swap1\n      return\n        /* \"contracts/Crowdfunding.sol\":977:1006  uint256 public failedProjects */\n    tag_10:\n      callvalue\n      dup1\n      iszero\n      tag_53\n      jumpi\n      0x00\n      dup1\n      revert\n    tag_53:\n      pop\n      tag_54\n      tag_55\n      jump\t// in\n    tag_54:\n      mload(0x40)\n      tag_56\n      swap2\n      swap1\n      tag_37\n      jump\t// in\n    tag_56:\n      mload(0x40)\n      dup1\n      swap2\n      sub\n      swap1\n      return\n        /* \"contracts/Crowdfunding.sol\":845:895  mapping(address => uint256) public projectsCreated */\n    tag_11:\n      callvalue\n      dup1\n      iszero\n      tag_57\n      jumpi\n      0x00\n      dup1\n      revert\n    tag_57:\n      pop\n      tag_58\n      0x04\n      dup1\n      calldatasize\n      sub\n      dup2\n      add\n      swap1\n      tag_59\n      swap2\n      swap1\n      tag_60\n      jump\t// in\n    tag_59:\n      tag_61\n      jump\t// in\n    tag_58:\n      mload(0x40)\n      tag_62\n      swap2\n      swap1\n      tag_37\n      jump\t// in\n    tag_62:\n      mload(0x40)\n      dup1\n      swap2\n      sub\n      swap1\n      return\n        /* \"contracts/Crowdfunding.sol\":937:970  uint256 public successfulProjects */\n    tag_12:\n      callvalue\n      dup1\n      iszero\n      tag_63\n      jumpi\n      0x00\n      dup1\n      revert\n    tag_63:\n      pop\n      tag_64\n      tag_65\n      jump\t// in\n    tag_64:\n      mload(0x40)\n      tag_66\n      swap2\n      swap1\n      tag_37\n      jump\t// in\n    tag_66:\n      mload(0x40)\n      dup1\n      swap2\n      sub\n      swap1\n      return\n        /* \"contracts/Crowdfunding.sol\":1042:1078  Commission public commissionContract */\n    tag_13:\n      callvalue\n      dup1\n      iszero\n      tag_67\n      jumpi\n      0x00\n      dup1\n      revert\n    tag_67:\n      pop\n      tag_68\n      tag_69\n      jump\t// in\n    tag_68:\n      mload(0x40)\n      tag_70\n      swap2\n      swap1\n      tag_71\n      jump\t// in\n    tag_70:\n      mload(0x40)\n      dup1\n      swap2\n      sub\n      swap1\n      return\n        /* \"contracts/Crowdfunding.sol\":1015:1035  address public admin */\n    tag_14:\n      callvalue\n      dup1\n      iszero\n      tag_72\n      jumpi\n      0x00\n      dup1\n      revert\n    tag_72:\n      pop\n      tag_73\n      tag_74\n      jump\t// in\n    tag_73:\n      mload(0x40)\n      tag_75\n      swap2\n      swap1\n      tag_76\n      jump\t// in\n    tag_75:\n      mload(0x40)\n      dup1\n      swap2\n      sub\n      swap1\n      return\n        /* \"contracts/Crowdfunding.sol\":1700:2221  function createProject(uint256 _goalAmount, uint256 _deadline) external {... */\n    tag_21:\n        /* \"contracts/Crowdfunding.sol\":1803:1818  block.timestamp */\n      timestamp\n        /* \"contracts/Crowdfunding.sol\":1791:1800  _deadline */\n      dup2\n        /* \"contracts/Crowdfunding.sol\":1791:1818  _deadline > block.timestamp */\n      gt\n        /* \"contracts/Crowdfunding.sol\":1783:1855  require(_deadline > block.timestamp, \"Deadline should be in the future\") */\n      tag_78\n      jumpi\n      mload(0x40)\n      0x08c379a000000000000000000000000000000000000000000000000000000000\n      dup2\n      mstore\n      0x04\n      add\n      tag_79\n      swap1\n      tag_80\n      jump\t// in\n    tag_79:\n      mload(0x40)\n      dup1\n      swap2\n      sub\n      swap1\n      revert\n    tag_78:\n        /* \"contracts/Crowdfunding.sol\":1868:1885  uint256 projectId */\n      0x00\n        /* \"contracts/Crowdfunding.sol\":1888:1901  totalProjects */\n      0x02\n      0x00\n        /* \"contracts/Crowdfunding.sol\":1888:1903  totalProjects++ */\n      dup2\n      sload\n      dup1\n      swap3\n      swap2\n      swap1\n      tag_81\n      swap1\n      tag_82\n      jump\t// in\n    tag_81:\n      swap2\n      swap1\n      pop\n      sstore\n        /* \"contracts/Crowdfunding.sol\":1868:1903  uint256 projectId = totalProjects++ */\n      swap1\n      pop\n        /* \"contracts/Crowdfunding.sol\":1914:1940  Project storage newProject */\n      0x00\n        /* \"contracts/Crowdfunding.sol\":1943:1951  projects */\n      dup1\n        /* \"contracts/Crowdfunding.sol\":1943:1962  projects[projectId] */\n      0x00\n        /* \"contracts/Crowdfunding.sol\":1952:1961  projectId */\n      dup4\n        /* \"contracts/Crowdfunding.sol\":1943:1962  projects[projectId] */\n      dup2\n      mstore\n      0x20\n      add\n      swap1\n      dup2\n      mstore\n      0x20\n      add\n      0x00\n      keccak256\n        /* \"contracts/Crowdfunding.sol\":1914:1962  Project storage newProject = projects[projectId] */\n      swap1\n      pop\n        /* \"contracts/Crowdfunding.sol\":1994:2004  msg.sender */\n      caller\n        /* \"contracts/Crowdfunding.sol\":1973:1983  newProject */\n      dup2\n        /* \"contracts/Crowdfunding.sol\":1973:1991  newProject.creator */\n      0x00\n      add\n      0x00\n        /* \"contracts/Crowdfunding.sol\":1973:2004  newProject.creator = msg.sender */\n      0x0100\n      exp\n      dup2\n      sload\n      dup2\n      0xffffffffffffffffffffffffffffffffffffffff\n      mul\n      not\n      and\n      swap1\n      dup4\n      0xffffffffffffffffffffffffffffffffffffffff\n      and\n      mul\n      or\n      swap1\n      sstore\n      pop\n        /* \"contracts/Crowdfunding.sol\":2039:2050  _goalAmount */\n      dup4\n        /* \"contracts/Crowdfunding.sol\":2015:2025  newProject */\n      dup2\n        /* \"contracts/Crowdfunding.sol\":2015:2036  newProject.goalAmount */\n      0x01\n      add\n        /* \"contracts/Crowdfunding.sol\":2015:2050  newProject.goalAmount = _goalAmount */\n      dup2\n      swap1\n      sstore\n      pop\n        /* \"contracts/Crowdfunding.sol\":2083:2092  _deadline */\n      dup3\n        /* \"contracts/Crowdfunding.sol\":2061:2071  newProject */\n      dup2\n        /* \"contracts/Crowdfunding.sol\":2061:2080  newProject.deadline */\n      0x03\n      add\n        /* \"contracts/Crowdfunding.sol\":2061:2092  newProject.deadline = _deadline */\n      dup2\n      swap1\n      sstore\n      pop\n        /* \"contracts/Crowdfunding.sol\":2105:2120  projectsCreated */\n      0x01\n        /* \"contracts/Crowdfunding.sol\":2105:2132  projectsCreated[msg.sender] */\n      0x00\n        /* \"contracts/Crowdfunding.sol\":2121:2131  msg.sender */\n      caller\n        /* \"contracts/Crowdfunding.sol\":2105:2132  projectsCreated[msg.sender] */\n      0xffffffffffffffffffffffffffffffffffffffff\n      and\n      0xffffffffffffffffffffffffffffffffffffffff\n      and\n      dup2\n      mstore\n      0x20\n      add\n      swap1\n      dup2\n      mstore\n      0x20\n      add\n      0x00\n      keccak256\n      0x00\n        /* \"contracts/Crowdfunding.sol\":2105:2134  projectsCreated[msg.sender]++ */\n      dup2\n      sload\n      dup1\n      swap3\n      swap2\n      swap1\n      tag_83\n      swap1\n      tag_82\n      jump\t// in\n    tag_83:\n      swap2\n      swap1\n      pop\n      sstore\n      pop\n        /* \"contracts/Crowdfunding.sol\":2152:2213  ProjectCreated(projectId, msg.sender, _goalAmount, _deadline) */\n      0xb5d890eb2df709d2f732ed81f328b444e49c1618ed8d64c53c0a040ec4040e1e\n        /* \"contracts/Crowdfunding.sol\":2167:2176  projectId */\n      dup3\n        /* \"contracts/Crowdfunding.sol\":2178:2188  msg.sender */\n      caller\n        /* \"contracts/Crowdfunding.sol\":2190:2201  _goalAmount */\n      dup7\n        /* \"contracts/Crowdfunding.sol\":2203:2212  _deadline */\n      dup7\n        /* \"contracts/Crowdfunding.sol\":2152:2213  ProjectCreated(projectId, msg.sender, _goalAmount, _deadline) */\n      mload(0x40)\n      tag_84\n      swap5\n      swap4\n      swap3\n      swap2\n      swap1\n      tag_85\n      jump\t// in\n    tag_84:\n      mload(0x40)\n      dup1\n      swap2\n      sub\n      swap1\n      log1\n        /* \"contracts/Crowdfunding.sol\":1772:2221  {... */\n      pop\n      pop\n        /* \"contracts/Crowdfunding.sol\":1700:2221  function createProject(uint256 _goalAmount, uint256 _deadline) external {... */\n      pop\n      pop\n      jump\t// out\n        /* \"contracts/Crowdfunding.sol\":795:838  mapping(uint256 => Project) public projects */\n    tag_26:\n      mstore(0x20, 0x00)\n      dup1\n      0x00\n      mstore\n      keccak256(0x00, 0x40)\n      0x00\n      swap2\n      pop\n      swap1\n      pop\n      dup1\n      0x00\n      add\n      0x00\n      swap1\n      sload\n      swap1\n      0x0100\n      exp\n      swap1\n      div\n      0xffffffffffffffffffffffffffffffffffffffff\n      and\n      swap1\n      dup1\n      0x01\n      add\n      sload\n      swap1\n      dup1\n      0x02\n      add\n      sload\n      swap1\n      dup1\n      0x03\n      add\n      sload\n      swap1\n      dup1\n      0x04\n      add\n      0x00\n      swap1\n      sload\n      swap1\n      0x0100\n      exp\n      swap1\n      div\n      0xff\n      and\n      swap1\n      dup1\n      0x04\n      add\n      0x01\n      swap1\n      sload\n      swap1\n      0x0100\n      exp\n      swap1\n      div\n      0xffffffffffffffffffffffffffffffffffffffff\n      and\n      swap1\n      dup1\n      0x05\n      add\n      sload\n      swap1\n      pop\n      dup8\n      jump\t// out\n        /* \"contracts/Crowdfunding.sol\":3751:3995  function checkProjectFundingStatus(uint256 _projectId) external {... */\n    tag_32:\n        /* \"contracts/Crowdfunding.sol\":3826:3849  Project storage project */\n      0x00\n        /* \"contracts/Crowdfunding.sol\":3852:3860  projects */\n      dup1\n        /* \"contracts/Crowdfunding.sol\":3852:3872  projects[_projectId] */\n      0x00\n        /* \"contracts/Crowdfunding.sol\":3861:3871  _projectId */\n      dup4\n        /* \"contracts/Crowdfunding.sol\":3852:3872  projects[_projectId] */\n      dup2\n      mstore\n      0x20\n      add\n      swap1\n      dup2\n      mstore\n      0x20\n      add\n      0x00\n      keccak256\n        /* \"contracts/Crowdfunding.sol\":3826:3872  Project storage project = projects[_projectId] */\n      swap1\n      pop\n        /* \"contracts/Crowdfunding.sol\":3906:3913  project */\n      dup1\n        /* \"contracts/Crowdfunding.sol\":3906:3922  project.deadline */\n      0x03\n      add\n      sload\n        /* \"contracts/Crowdfunding.sol\":3887:3902  block.timestamp */\n      timestamp\n        /* \"contracts/Crowdfunding.sol\":3887:3922  block.timestamp >= project.deadline */\n      lt\n      iszero\n        /* \"contracts/Crowdfunding.sol\":3887:3943  block.timestamp >= project.deadline && !project.isFunded */\n      dup1\n      iszero\n      tag_87\n      jumpi\n      pop\n        /* \"contracts/Crowdfunding.sol\":3927:3934  project */\n      dup1\n        /* \"contracts/Crowdfunding.sol\":3927:3943  project.isFunded */\n      0x04\n      add\n      0x00\n      swap1\n      sload\n      swap1\n      0x0100\n      exp\n      swap1\n      div\n      0xff\n      and\n        /* \"contracts/Crowdfunding.sol\":3926:3943  !project.isFunded */\n      iszero\n        /* \"contracts/Crowdfunding.sol\":3887:3943  block.timestamp >= project.deadline && !project.isFunded */\n    tag_87:\n        /* \"contracts/Crowdfunding.sol\":3883:3988  if (block.timestamp >= project.deadline && !project.isFunded) {... */\n      iszero\n      tag_88\n      jumpi\n        /* \"contracts/Crowdfunding.sol\":3960:3974  failedProjects */\n      0x04\n      0x00\n        /* \"contracts/Crowdfunding.sol\":3960:3976  failedProjects++ */\n      dup2\n      sload\n      dup1\n      swap3\n      swap2\n      swap1\n      tag_89\n      swap1\n      tag_82\n      jump\t// in\n    tag_89:\n      swap2\n      swap1\n      pop\n      sstore\n      pop\n        /* \"contracts/Crowdfunding.sol\":3883:3988  if (block.timestamp >= project.deadline && !project.isFunded) {... */\n    tag_88:\n        /* \"contracts/Crowdfunding.sol\":3815:3995  {... */\n      pop\n        /* \"contracts/Crowdfunding.sol\":3751:3995  function checkProjectFundingStatus(uint256 _projectId) external {... */\n      pop\n      jump\t// out\n        /* \"contracts/Crowdfunding.sol\":3515:3629  function getSuccessfulProjectsCount() external view returns (uint256) {... */\n    tag_35:\n        /* \"contracts/Crowdfunding.sol\":3576:3583  uint256 */\n      0x00\n        /* \"contracts/Crowdfunding.sol\":3603:3621  successfulProjects */\n      sload(0x03)\n        /* \"contracts/Crowdfunding.sol\":3596:3621  return successfulProjects */\n      swap1\n      pop\n        /* \"contracts/Crowdfunding.sol\":3515:3629  function getSuccessfulProjectsCount() external view returns (uint256) {... */\n      swap1\n      jump\t// out\n        /* \"contracts/Crowdfunding.sol\":3637:3743  function getFailedProjectsCount() external view returns (uint256) {... */\n    tag_40:\n        /* \"contracts/Crowdfunding.sol\":3694:3701  uint256 */\n      0x00\n        /* \"contracts/Crowdfunding.sol\":3721:3735  failedProjects */\n      sload(0x04)\n        /* \"contracts/Crowdfunding.sol\":3714:3735  return failedProjects */\n      swap1\n      pop\n        /* \"contracts/Crowdfunding.sol\":3637:3743  function getFailedProjectsCount() external view returns (uint256) {... */\n      swap1\n      jump\t// out\n        /* \"contracts/Crowdfunding.sol\":3129:3507  function extendDeadline(uint256 _projectId, uint256 _newDeadline) external onlyProjectCreator(_projectId) {... */\n    tag_45:\n        /* \"contracts/Crowdfunding.sol\":3223:3233  _projectId */\n      dup2\n        /* \"contracts/Crowdfunding.sol\":1613:1623  msg.sender */\n      caller\n        /* \"contracts/Crowdfunding.sol\":1581:1623  projects[_projectId].creator == msg.sender */\n      0xffffffffffffffffffffffffffffffffffffffff\n      and\n        /* \"contracts/Crowdfunding.sol\":1581:1589  projects */\n      0x00\n        /* \"contracts/Crowdfunding.sol\":1581:1601  projects[_projectId] */\n      dup1\n        /* \"contracts/Crowdfunding.sol\":1590:1600  _projectId */\n      dup4\n        /* \"contracts/Crowdfunding.sol\":1581:1601  projects[_projectId] */\n      dup2\n      mstore\n      0x20\n      add\n      swap1\n      dup2\n      mstore\n      0x20\n      add\n      0x00\n      keccak256\n        /* \"contracts/Crowdfunding.sol\":1581:1609  projects[_projectId].creator */\n      0x00\n      add\n      0x00\n      swap1\n      sload\n      swap1\n      0x0100\n      exp\n      swap1\n      div\n      0xffffffffffffffffffffffffffffffffffffffff\n      and\n        /* \"contracts/Crowdfunding.sol\":1581:1623  projects[_projectId].creator == msg.sender */\n      0xffffffffffffffffffffffffffffffffffffffff\n      and\n      eq\n        /* \"contracts/Crowdfunding.sol\":1573:1672  require(projects[_projectId].creator == msg.sender, \"Only project creator can perform this action\") */\n      tag_93\n      jumpi\n      mload(0x40)\n      0x08c379a000000000000000000000000000000000000000000000000000000000\n      dup2\n      mstore\n      0x04\n      add\n      tag_94\n      swap1\n      tag_95\n      jump\t// in\n    tag_94:\n      mload(0x40)\n      dup1\n      swap2\n      sub\n      swap1\n      revert\n    tag_93:\n        /* \"contracts/Crowdfunding.sol\":3246:3269  Project storage project */\n      0x00\n        /* \"contracts/Crowdfunding.sol\":3272:3280  projects */\n      dup1\n        /* \"contracts/Crowdfunding.sol\":3272:3292  projects[_projectId] */\n      0x00\n        /* \"contracts/Crowdfunding.sol\":3281:3291  _projectId */\n      dup6\n        /* \"contracts/Crowdfunding.sol\":3272:3292  projects[_projectId] */\n      dup2\n      mstore\n      0x20\n      add\n      swap1\n      dup2\n      mstore\n      0x20\n      add\n      0x00\n      keccak256\n        /* \"contracts/Crowdfunding.sol\":3246:3292  Project storage project = projects[_projectId] */\n      swap1\n      pop\n        /* \"contracts/Crowdfunding.sol\":3326:3333  project */\n      dup1\n        /* \"contracts/Crowdfunding.sol\":3326:3342  project.deadline */\n      0x03\n      add\n      sload\n        /* \"contracts/Crowdfunding.sol\":3311:3323  _newDeadline */\n      dup4\n        /* \"contracts/Crowdfunding.sol\":3311:3342  _newDeadline > project.deadline */\n      gt\n        /* \"contracts/Crowdfunding.sol\":3303:3397  require(_newDeadline > project.deadline, \"New deadline must be greater than current deadline\") */\n      tag_97\n      jumpi\n      mload(0x40)\n      0x08c379a000000000000000000000000000000000000000000000000000000000\n      dup2\n      mstore\n      0x04\n      add\n      tag_98\n      swap1\n      tag_99\n      jump\t// in\n    tag_98:\n      mload(0x40)\n      dup1\n      swap2\n      sub\n      swap1\n      revert\n    tag_97:\n        /* \"contracts/Crowdfunding.sol\":3427:3439  _newDeadline */\n      dup3\n        /* \"contracts/Crowdfunding.sol\":3408:3415  project */\n      dup2\n        /* \"contracts/Crowdfunding.sol\":3408:3424  project.deadline */\n      0x03\n      add\n        /* \"contracts/Crowdfunding.sol\":3408:3439  project.deadline = _newDeadline */\n      dup2\n      swap1\n      sstore\n      pop\n        /* \"contracts/Crowdfunding.sol\":3457:3499  DeadlineExtended(_projectId, _newDeadline) */\n      0x073d5fd87a7e0c2a384727f9aab2e84826370623aba582638b425a417e799a2c\n        /* \"contracts/Crowdfunding.sol\":3474:3484  _projectId */\n      dup5\n        /* \"contracts/Crowdfunding.sol\":3486:3498  _newDeadline */\n      dup5\n        /* \"contracts/Crowdfunding.sol\":3457:3499  DeadlineExtended(_projectId, _newDeadline) */\n      mload(0x40)\n      tag_100\n      swap3\n      swap2\n      swap1\n      tag_101\n      jump\t// in\n    tag_100:\n      mload(0x40)\n      dup1\n      swap2\n      sub\n      swap1\n      log1\n        /* \"contracts/Crowdfunding.sol\":3235:3507  {... */\n      pop\n        /* \"contracts/Crowdfunding.sol\":3129:3507  function extendDeadline(uint256 _projectId, uint256 _newDeadline) external onlyProjectCreator(_projectId) {... */\n      pop\n      pop\n      pop\n      jump\t// out\n        /* \"contracts/Crowdfunding.sol\":2229:3121  function fundProject(uint256 _projectId) external payable {... */\n    tag_48:\n        /* \"contracts/Crowdfunding.sol\":2298:2321  Project storage project */\n      0x00\n        /* \"contracts/Crowdfunding.sol\":2324:2332  projects */\n      dup1\n        /* \"contracts/Crowdfunding.sol\":2324:2344  projects[_projectId] */\n      0x00\n        /* \"contracts/Crowdfunding.sol\":2333:2343  _projectId */\n      dup4\n        /* \"contracts/Crowdfunding.sol\":2324:2344  projects[_projectId] */\n      dup2\n      mstore\n      0x20\n      add\n      swap1\n      dup2\n      mstore\n      0x20\n      add\n      0x00\n      keccak256\n        /* \"contracts/Crowdfunding.sol\":2298:2344  Project storage project = projects[_projectId] */\n      swap1\n      pop\n        /* \"contracts/Crowdfunding.sol\":2381:2388  project */\n      dup1\n        /* \"contracts/Crowdfunding.sol\":2381:2397  project.deadline */\n      0x03\n      add\n      sload\n        /* \"contracts/Crowdfunding.sol\":2363:2378  block.timestamp */\n      timestamp\n        /* \"contracts/Crowdfunding.sol\":2363:2397  block.timestamp < project.deadline */\n      lt\n        /* \"contracts/Crowdfunding.sol\":2355:2434  require(block.timestamp < project.deadline, \"Project funding period has ended\") */\n      tag_103\n      jumpi\n      mload(0x40)\n      0x08c379a000000000000000000000000000000000000000000000000000000000\n      dup2\n      mstore\n      0x04\n      add\n      tag_104\n      swap1\n      tag_105\n      jump\t// in\n    tag_104:\n      mload(0x40)\n      dup1\n      swap2\n      sub\n      swap1\n      revert\n    tag_103:\n        /* \"contracts/Crowdfunding.sol\":2454:2461  project */\n      dup1\n        /* \"contracts/Crowdfunding.sol\":2454:2470  project.isFunded */\n      0x04\n      add\n      0x00\n      swap1\n      sload\n      swap1\n      0x0100\n      exp\n      swap1\n      div\n      0xff\n      and\n        /* \"contracts/Crowdfunding.sol\":2453:2470  !project.isFunded */\n      iszero\n        /* \"contracts/Crowdfunding.sol\":2445:2497  require(!project.isFunded, \"Project already funded\") */\n      tag_106\n      jumpi\n      mload(0x40)\n      0x08c379a000000000000000000000000000000000000000000000000000000000\n      dup2\n      mstore\n      0x04\n      add\n      tag_107\n      swap1\n      tag_108\n      jump\t// in\n    tag_107:\n      mload(0x40)\n      dup1\n      swap2\n      sub\n      swap1\n      revert\n    tag_106:\n        /* \"contracts/Crowdfunding.sol\":2510:2528  uint256 commission */\n      0x00\n        /* \"contracts/Crowdfunding.sol\":2543:2545  20 */\n      0x14\n        /* \"contracts/Crowdfunding.sol\":2531:2540  msg.value */\n      callvalue\n        /* \"contracts/Crowdfunding.sol\":2531:2545  msg.value / 20 */\n      tag_109\n      swap2\n      swap1\n      tag_110\n      jump\t// in\n    tag_109:\n        /* \"contracts/Crowdfunding.sol\":2510:2545  uint256 commission = msg.value / 20 */\n      swap1\n      pop\n        /* \"contracts/Crowdfunding.sol\":2562:2579  uint256 netAmount */\n      0x00\n        /* \"contracts/Crowdfunding.sol\":2594:2604  commission */\n      dup2\n        /* \"contracts/Crowdfunding.sol\":2582:2591  msg.value */\n      callvalue\n        /* \"contracts/Crowdfunding.sol\":2582:2604  msg.value - commission */\n      tag_111\n      swap2\n      swap1\n      tag_112\n      jump\t// in\n    tag_111:\n        /* \"contracts/Crowdfunding.sol\":2562:2604  uint256 netAmount = msg.value - commission */\n      swap1\n      pop\n        /* \"contracts/Crowdfunding.sol\":2642:2651  netAmount */\n      dup1\n        /* \"contracts/Crowdfunding.sol\":2617:2624  project */\n      dup4\n        /* \"contracts/Crowdfunding.sol\":2617:2638  project.currentAmount */\n      0x02\n      add\n      0x00\n        /* \"contracts/Crowdfunding.sol\":2617:2651  project.currentAmount += netAmount */\n      dup3\n      dup3\n      sload\n      tag_113\n      swap2\n      swap1\n      tag_114\n      jump\t// in\n    tag_113:\n      swap3\n      pop\n      pop\n      dup2\n      swap1\n      sstore\n      pop\n        /* \"contracts/Crowdfunding.sol\":2680:2687  project */\n      dup3\n        /* \"contracts/Crowdfunding.sol\":2680:2705  project.highestFundAmount */\n      0x05\n      add\n      sload\n        /* \"contracts/Crowdfunding.sol\":2668:2677  msg.value */\n      callvalue\n        /* \"contracts/Crowdfunding.sol\":2668:2705  msg.value > project.highestFundAmount */\n      gt\n        /* \"contracts/Crowdfunding.sol\":2664:2820  if (msg.value > project.highestFundAmount) {... */\n      iszero\n      tag_115\n      jumpi\n        /* \"contracts/Crowdfunding.sol\":2746:2756  msg.sender */\n      caller\n        /* \"contracts/Crowdfunding.sol\":2722:2729  project */\n      dup4\n        /* \"contracts/Crowdfunding.sol\":2722:2743  project.highestFunder */\n      0x04\n      add\n      0x01\n        /* \"contracts/Crowdfunding.sol\":2722:2756  project.highestFunder = msg.sender */\n      0x0100\n      exp\n      dup2\n      sload\n      dup2\n      0xffffffffffffffffffffffffffffffffffffffff\n      mul\n      not\n      and\n      swap1\n      dup4\n      0xffffffffffffffffffffffffffffffffffffffff\n      and\n      mul\n      or\n      swap1\n      sstore\n      pop\n        /* \"contracts/Crowdfunding.sol\":2799:2808  msg.value */\n      callvalue\n        /* \"contracts/Crowdfunding.sol\":2771:2778  project */\n      dup4\n        /* \"contracts/Crowdfunding.sol\":2771:2796  project.highestFundAmount */\n      0x05\n      add\n        /* \"contracts/Crowdfunding.sol\":2771:2808  project.highestFundAmount = msg.value */\n      dup2\n      swap1\n      sstore\n      pop\n        /* \"contracts/Crowdfunding.sol\":2664:2820  if (msg.value > project.highestFundAmount) {... */\n    tag_115:\n        /* \"contracts/Crowdfunding.sol\":2848:2866  commissionContract */\n      0x06\n      0x00\n      swap1\n      sload\n      swap1\n      0x0100\n      exp\n      swap1\n      div\n      0xffffffffffffffffffffffffffffffffffffffff\n      and\n        /* \"contracts/Crowdfunding.sol\":2832:2877  payable(address(commissionContract)).transfer */\n      0xffffffffffffffffffffffffffffffffffffffff\n      and\n        /* \"contracts/Crowdfunding.sol\":2832:2889  payable(address(commissionContract)).transfer(commission) */\n      0x08fc\n        /* \"contracts/Crowdfunding.sol\":2878:2888  commission */\n      dup4\n        /* \"contracts/Crowdfunding.sol\":2832:2889  payable(address(commissionContract)).transfer(commission) */\n      swap1\n      dup2\n      iszero\n      mul\n      swap1\n      mload(0x40)\n      0x00\n      mload(0x40)\n      dup1\n      dup4\n      sub\n      dup2\n      dup6\n      dup9\n      dup9\n      call\n      swap4\n      pop\n      pop\n      pop\n      pop\n      iszero\n      dup1\n      iszero\n      tag_117\n      jumpi\n      returndatasize\n      0x00\n      dup1\n      returndatacopy\n      revert(0x00, returndatasize)\n    tag_117:\n      pop\n        /* \"contracts/Crowdfunding.sol\":2907:2967  ProjectFunded(_projectId, msg.sender, msg.value, commission) */\n      0x2c26a9d48bfcf6dc8a28b936f0aa3b166a0119134df865f480007cc6f1a9b197\n        /* \"contracts/Crowdfunding.sol\":2921:2931  _projectId */\n      dup5\n        /* \"contracts/Crowdfunding.sol\":2933:2943  msg.sender */\n      caller\n        /* \"contracts/Crowdfunding.sol\":2945:2954  msg.value */\n      callvalue\n        /* \"contracts/Crowdfunding.sol\":2956:2966  commission */\n      dup6\n        /* \"contracts/Crowdfunding.sol\":2907:2967  ProjectFunded(_projectId, msg.sender, msg.value, commission) */\n      mload(0x40)\n      tag_118\n      swap5\n      swap4\n      swap3\n      swap2\n      swap1\n      tag_85\n      jump\t// in\n    tag_118:\n      mload(0x40)\n      dup1\n      swap2\n      sub\n      swap1\n      log1\n        /* \"contracts/Crowdfunding.sol\":3009:3016  project */\n      dup3\n        /* \"contracts/Crowdfunding.sol\":3009:3027  project.goalAmount */\n      0x01\n      add\n      sload\n        /* \"contracts/Crowdfunding.sol\":2984:2991  project */\n      dup4\n        /* \"contracts/Crowdfunding.sol\":2984:3005  project.currentAmount */\n      0x02\n      add\n      sload\n        /* \"contracts/Crowdfunding.sol\":2984:3027  project.currentAmount >= project.goalAmount */\n      lt\n        /* \"contracts/Crowdfunding.sol\":2980:3114  if (project.currentAmount >= project.goalAmount) {... */\n      tag_119\n      jumpi\n        /* \"contracts/Crowdfunding.sol\":3063:3067  true */\n      0x01\n        /* \"contracts/Crowdfunding.sol\":3044:3051  project */\n      dup4\n        /* \"contracts/Crowdfunding.sol\":3044:3060  project.isFunded */\n      0x04\n      add\n      0x00\n        /* \"contracts/Crowdfunding.sol\":3044:3067  project.isFunded = true */\n      0x0100\n      exp\n      dup2\n      sload\n      dup2\n      0xff\n      mul\n      not\n      and\n      swap1\n      dup4\n      iszero\n      iszero\n      mul\n      or\n      swap1\n      sstore\n      pop\n        /* \"contracts/Crowdfunding.sol\":3082:3100  successfulProjects */\n      0x03\n      0x00\n        /* \"contracts/Crowdfunding.sol\":3082:3102  successfulProjects++ */\n      dup2\n      sload\n      dup1\n      swap3\n      swap2\n      swap1\n      tag_120\n      swap1\n      tag_82\n      jump\t// in\n    tag_120:\n      swap2\n      swap1\n      pop\n      sstore\n      pop\n        /* \"contracts/Crowdfunding.sol\":2980:3114  if (project.currentAmount >= project.goalAmount) {... */\n    tag_119:\n        /* \"contracts/Crowdfunding.sol\":2287:3121  {... */\n      pop\n      pop\n      pop\n        /* \"contracts/Crowdfunding.sol\":2229:3121  function fundProject(uint256 _projectId) external payable {... */\n      pop\n      jump\t// out\n        /* \"contracts/Crowdfunding.sol\":902:930  uint256 public totalProjects */\n    tag_51:\n      sload(0x02)\n      dup2\n      jump\t// out\n        /* \"contracts/Crowdfunding.sol\":977:1006  uint256 public failedProjects */\n    tag_55:\n      sload(0x04)\n      dup2\n      jump\t// out\n        /* \"contracts/Crowdfunding.sol\":845:895  mapping(address => uint256) public projectsCreated */\n    tag_61:\n      mstore(0x20, 0x01)\n      dup1\n      0x00\n      mstore\n      keccak256(0x00, 0x40)\n      0x00\n      swap2\n      pop\n      swap1\n      pop\n      sload\n      dup2\n      jump\t// out\n        /* \"contracts/Crowdfunding.sol\":937:970  uint256 public successfulProjects */\n    tag_65:\n      sload(0x03)\n      dup2\n      jump\t// out\n        /* \"contracts/Crowdfunding.sol\":1042:1078  Commission public commissionContract */\n    tag_69:\n      0x06\n      0x00\n      swap1\n      sload\n      swap1\n      0x0100\n      exp\n      swap1\n      div\n      0xffffffffffffffffffffffffffffffffffffffff\n      and\n      dup2\n      jump\t// out\n        /* \"contracts/Crowdfunding.sol\":1015:1035  address public admin */\n    tag_74:\n      0x05\n      0x00\n      swap1\n      sload\n      swap1\n      0x0100\n      exp\n      swap1\n      div\n      0xffffffffffffffffffffffffffffffffffffffff\n      and\n      dup2\n      jump\t// out\n        /* \"#utility.yul\":88:205   */\n    tag_122:\n        /* \"#utility.yul\":197:198   */\n      0x00\n        /* \"#utility.yul\":194:195   */\n      dup1\n        /* \"#utility.yul\":187:199   */\n      revert\n        /* \"#utility.yul\":334:411   */\n    tag_124:\n        /* \"#utility.yul\":371:378   */\n      0x00\n        /* \"#utility.yul\":400:405   */\n      dup2\n        /* \"#utility.yul\":389:405   */\n      swap1\n      pop\n        /* \"#utility.yul\":334:411   */\n      swap2\n      swap1\n      pop\n      jump\t// out\n        /* \"#utility.yul\":417:539   */\n    tag_125:\n        /* \"#utility.yul\":490:514   */\n      tag_159\n        /* \"#utility.yul\":508:513   */\n      dup2\n        /* \"#utility.yul\":490:514   */\n      tag_124\n      jump\t// in\n    tag_159:\n        /* \"#utility.yul\":483:488   */\n      dup2\n        /* \"#utility.yul\":480:515   */\n      eq\n        /* \"#utility.yul\":470:533   */\n      tag_160\n      jumpi\n        /* \"#utility.yul\":529:530   */\n      0x00\n        /* \"#utility.yul\":526:527   */\n      dup1\n        /* \"#utility.yul\":519:531   */\n      revert\n        /* \"#utility.yul\":470:533   */\n    tag_160:\n        /* \"#utility.yul\":417:539   */\n      pop\n      jump\t// out\n        /* \"#utility.yul\":545:684   */\n    tag_126:\n        /* \"#utility.yul\":591:596   */\n      0x00\n        /* \"#utility.yul\":629:635   */\n      dup2\n        /* \"#utility.yul\":616:636   */\n      calldataload\n        /* \"#utility.yul\":607:636   */\n      swap1\n      pop\n        /* \"#utility.yul\":645:678   */\n      tag_162\n        /* \"#utility.yul\":672:677   */\n      dup2\n        /* \"#utility.yul\":645:678   */\n      tag_125\n      jump\t// in\n    tag_162:\n        /* \"#utility.yul\":545:684   */\n      swap3\n      swap2\n      pop\n      pop\n      jump\t// out\n        /* \"#utility.yul\":690:1164   */\n    tag_20:\n        /* \"#utility.yul\":758:764   */\n      0x00\n        /* \"#utility.yul\":766:772   */\n      dup1\n        /* \"#utility.yul\":815:817   */\n      0x40\n        /* \"#utility.yul\":803:812   */\n      dup4\n        /* \"#utility.yul\":794:801   */\n      dup6\n        /* \"#utility.yul\":790:813   */\n      sub\n        /* \"#utility.yul\":786:818   */\n      slt\n        /* \"#utility.yul\":783:902   */\n      iszero\n      tag_164\n      jumpi\n        /* \"#utility.yul\":821:900   */\n      tag_165\n      tag_122\n      jump\t// in\n    tag_165:\n        /* \"#utility.yul\":783:902   */\n    tag_164:\n        /* \"#utility.yul\":941:942   */\n      0x00\n        /* \"#utility.yul\":966:1019   */\n      tag_166\n        /* \"#utility.yul\":1011:1018   */\n      dup6\n        /* \"#utility.yul\":1002:1008   */\n      dup3\n        /* \"#utility.yul\":991:1000   */\n      dup7\n        /* \"#utility.yul\":987:1009   */\n      add\n        /* \"#utility.yul\":966:1019   */\n      tag_126\n      jump\t// in\n    tag_166:\n        /* \"#utility.yul\":956:1019   */\n      swap3\n      pop\n        /* \"#utility.yul\":912:1029   */\n      pop\n        /* \"#utility.yul\":1068:1070   */\n      0x20\n        /* \"#utility.yul\":1094:1147   */\n      tag_167\n        /* \"#utility.yul\":1139:1146   */\n      dup6\n        /* \"#utility.yul\":1130:1136   */\n      dup3\n        /* \"#utility.yul\":1119:1128   */\n      dup7\n        /* \"#utility.yul\":1115:1137   */\n      add\n        /* \"#utility.yul\":1094:1147   */\n      tag_126\n      jump\t// in\n    tag_167:\n        /* \"#utility.yul\":1084:1147   */\n      swap2\n      pop\n        /* \"#utility.yul\":1039:1157   */\n      pop\n        /* \"#utility.yul\":690:1164   */\n      swap3\n      pop\n      swap3\n      swap1\n      pop\n      jump\t// out\n        /* \"#utility.yul\":1170:1499   */\n    tag_25:\n        /* \"#utility.yul\":1229:1235   */\n      0x00\n        /* \"#utility.yul\":1278:1280   */\n      0x20\n        /* \"#utility.yul\":1266:1275   */\n      dup3\n        /* \"#utility.yul\":1257:1264   */\n      dup5\n        /* \"#utility.yul\":1253:1276   */\n      sub\n        /* \"#utility.yul\":1249:1281   */\n      slt\n        /* \"#utility.yul\":1246:1365   */\n      iszero\n      tag_169\n      jumpi\n        /* \"#utility.yul\":1284:1363   */\n      tag_170\n      tag_122\n      jump\t// in\n    tag_170:\n        /* \"#utility.yul\":1246:1365   */\n    tag_169:\n        /* \"#utility.yul\":1404:1405   */\n      0x00\n        /* \"#utility.yul\":1429:1482   */\n      tag_171\n        /* \"#utility.yul\":1474:1481   */\n      dup5\n        /* \"#utility.yul\":1465:1471   */\n      dup3\n        /* \"#utility.yul\":1454:1463   */\n      dup6\n        /* \"#utility.yul\":1450:1472   */\n      add\n        /* \"#utility.yul\":1429:1482   */\n      tag_126\n      jump\t// in\n    tag_171:\n        /* \"#utility.yul\":1419:1482   */\n      swap2\n      pop\n        /* \"#utility.yul\":1375:1492   */\n      pop\n        /* \"#utility.yul\":1170:1499   */\n      swap3\n      swap2\n      pop\n      pop\n      jump\t// out\n        /* \"#utility.yul\":1505:1631   */\n    tag_127:\n        /* \"#utility.yul\":1542:1549   */\n      0x00\n        /* \"#utility.yul\":1582:1624   */\n      0xffffffffffffffffffffffffffffffffffffffff\n        /* \"#utility.yul\":1575:1580   */\n      dup3\n        /* \"#utility.yul\":1571:1625   */\n      and\n        /* \"#utility.yul\":1560:1625   */\n      swap1\n      pop\n        /* \"#utility.yul\":1505:1631   */\n      swap2\n      swap1\n      pop\n      jump\t// out\n        /* \"#utility.yul\":1637:1733   */\n    tag_128:\n        /* \"#utility.yul\":1674:1681   */\n      0x00\n        /* \"#utility.yul\":1703:1727   */\n      tag_174\n        /* \"#utility.yul\":1721:1726   */\n      dup3\n        /* \"#utility.yul\":1703:1727   */\n      tag_127\n      jump\t// in\n    tag_174:\n        /* \"#utility.yul\":1692:1727   */\n      swap1\n      pop\n        /* \"#utility.yul\":1637:1733   */\n      swap2\n      swap1\n      pop\n      jump\t// out\n        /* \"#utility.yul\":1739:1857   */\n    tag_129:\n        /* \"#utility.yul\":1826:1850   */\n      tag_176\n        /* \"#utility.yul\":1844:1849   */\n      dup2\n        /* \"#utility.yul\":1826:1850   */\n      tag_128\n      jump\t// in\n    tag_176:\n        /* \"#utility.yul\":1821:1824   */\n      dup3\n        /* \"#utility.yul\":1814:1851   */\n      mstore\n        /* \"#utility.yul\":1739:1857   */\n      pop\n      pop\n      jump\t// out\n        /* \"#utility.yul\":1863:1981   */\n    tag_130:\n        /* \"#utility.yul\":1950:1974   */\n      tag_178\n        /* \"#utility.yul\":1968:1973   */\n      dup2\n        /* \"#utility.yul\":1950:1974   */\n      tag_124\n      jump\t// in\n    tag_178:\n        /* \"#utility.yul\":1945:1948   */\n      dup3\n        /* \"#utility.yul\":1938:1975   */\n      mstore\n        /* \"#utility.yul\":1863:1981   */\n      pop\n      pop\n      jump\t// out\n        /* \"#utility.yul\":1987:2077   */\n    tag_131:\n        /* \"#utility.yul\":2021:2028   */\n      0x00\n        /* \"#utility.yul\":2064:2069   */\n      dup2\n        /* \"#utility.yul\":2057:2070   */\n      iszero\n        /* \"#utility.yul\":2050:2071   */\n      iszero\n        /* \"#utility.yul\":2039:2071   */\n      swap1\n      pop\n        /* \"#utility.yul\":1987:2077   */\n      swap2\n      swap1\n      pop\n      jump\t// out\n        /* \"#utility.yul\":2083:2192   */\n    tag_132:\n        /* \"#utility.yul\":2164:2185   */\n      tag_181\n        /* \"#utility.yul\":2179:2184   */\n      dup2\n        /* \"#utility.yul\":2164:2185   */\n      tag_131\n      jump\t// in\n    tag_181:\n        /* \"#utility.yul\":2159:2162   */\n      dup3\n        /* \"#utility.yul\":2152:2186   */\n      mstore\n        /* \"#utility.yul\":2083:2192   */\n      pop\n      pop\n      jump\t// out\n        /* \"#utility.yul\":2198:3072   */\n    tag_28:\n        /* \"#utility.yul\":2453:2457   */\n      0x00\n        /* \"#utility.yul\":2491:2494   */\n      0xe0\n        /* \"#utility.yul\":2480:2489   */\n      dup3\n        /* \"#utility.yul\":2476:2495   */\n      add\n        /* \"#utility.yul\":2468:2495   */\n      swap1\n      pop\n        /* \"#utility.yul\":2505:2576   */\n      tag_183\n        /* \"#utility.yul\":2573:2574   */\n      0x00\n        /* \"#utility.yul\":2562:2571   */\n      dup4\n        /* \"#utility.yul\":2558:2575   */\n      add\n        /* \"#utility.yul\":2549:2555   */\n      dup11\n        /* \"#utility.yul\":2505:2576   */\n      tag_129\n      jump\t// in\n    tag_183:\n        /* \"#utility.yul\":2586:2658   */\n      tag_184\n        /* \"#utility.yul\":2654:2656   */\n      0x20\n        /* \"#utility.yul\":2643:2652   */\n      dup4\n        /* \"#utility.yul\":2639:2657   */\n      add\n        /* \"#utility.yul\":2630:2636   */\n      dup10\n        /* \"#utility.yul\":2586:2658   */\n      tag_130\n      jump\t// in\n    tag_184:\n        /* \"#utility.yul\":2668:2740   */\n      tag_185\n        /* \"#utility.yul\":2736:2738   */\n      0x40\n        /* \"#utility.yul\":2725:2734   */\n      dup4\n        /* \"#utility.yul\":2721:2739   */\n      add\n        /* \"#utility.yul\":2712:2718   */\n      dup9\n        /* \"#utility.yul\":2668:2740   */\n      tag_130\n      jump\t// in\n    tag_185:\n        /* \"#utility.yul\":2750:2822   */\n      tag_186\n        /* \"#utility.yul\":2818:2820   */\n      0x60\n        /* \"#utility.yul\":2807:2816   */\n      dup4\n        /* \"#utility.yul\":2803:2821   */\n      add\n        /* \"#utility.yul\":2794:2800   */\n      dup8\n        /* \"#utility.yul\":2750:2822   */\n      tag_130\n      jump\t// in\n    tag_186:\n        /* \"#utility.yul\":2832:2899   */\n      tag_187\n        /* \"#utility.yul\":2894:2897   */\n      0x80\n        /* \"#utility.yul\":2883:2892   */\n      dup4\n        /* \"#utility.yul\":2879:2898   */\n      add\n        /* \"#utility.yul\":2870:2876   */\n      dup7\n        /* \"#utility.yul\":2832:2899   */\n      tag_132\n      jump\t// in\n    tag_187:\n        /* \"#utility.yul\":2909:2982   */\n      tag_188\n        /* \"#utility.yul\":2977:2980   */\n      0xa0\n        /* \"#utility.yul\":2966:2975   */\n      dup4\n        /* \"#utility.yul\":2962:2981   */\n      add\n        /* \"#utility.yul\":2953:2959   */\n      dup6\n        /* \"#utility.yul\":2909:2982   */\n      tag_129\n      jump\t// in\n    tag_188:\n        /* \"#utility.yul\":2992:3065   */\n      tag_189\n        /* \"#utility.yul\":3060:3063   */\n      0xc0\n        /* \"#utility.yul\":3049:3058   */\n      dup4\n        /* \"#utility.yul\":3045:3064   */\n      add\n        /* \"#utility.yul\":3036:3042   */\n      dup5\n        /* \"#utility.yul\":2992:3065   */\n      tag_130\n      jump\t// in\n    tag_189:\n        /* \"#utility.yul\":2198:3072   */\n      swap9\n      swap8\n      pop\n      pop\n      pop\n      pop\n      pop\n      pop\n      pop\n      pop\n      jump\t// out\n        /* \"#utility.yul\":3078:3300   */\n    tag_37:\n        /* \"#utility.yul\":3171:3175   */\n      0x00\n        /* \"#utility.yul\":3209:3211   */\n      0x20\n        /* \"#utility.yul\":3198:3207   */\n      dup3\n        /* \"#utility.yul\":3194:3212   */\n      add\n        /* \"#utility.yul\":3186:3212   */\n      swap1\n      pop\n        /* \"#utility.yul\":3222:3293   */\n      tag_191\n        /* \"#utility.yul\":3290:3291   */\n      0x00\n        /* \"#utility.yul\":3279:3288   */\n      dup4\n        /* \"#utility.yul\":3275:3292   */\n      add\n        /* \"#utility.yul\":3266:3272   */\n      dup5\n        /* \"#utility.yul\":3222:3293   */\n      tag_130\n      jump\t// in\n    tag_191:\n        /* \"#utility.yul\":3078:3300   */\n      swap3\n      swap2\n      pop\n      pop\n      jump\t// out\n        /* \"#utility.yul\":3306:3428   */\n    tag_133:\n        /* \"#utility.yul\":3379:3403   */\n      tag_193\n        /* \"#utility.yul\":3397:3402   */\n      dup2\n        /* \"#utility.yul\":3379:3403   */\n      tag_128\n      jump\t// in\n    tag_193:\n        /* \"#utility.yul\":3372:3377   */\n      dup2\n        /* \"#utility.yul\":3369:3404   */\n      eq\n        /* \"#utility.yul\":3359:3422   */\n      tag_194\n      jumpi\n        /* \"#utility.yul\":3418:3419   */\n      0x00\n        /* \"#utility.yul\":3415:3416   */\n      dup1\n        /* \"#utility.yul\":3408:3420   */\n      revert\n        /* \"#utility.yul\":3359:3422   */\n    tag_194:\n        /* \"#utility.yul\":3306:3428   */\n      pop\n      jump\t// out\n        /* \"#utility.yul\":3434:3573   */\n    tag_134:\n        /* \"#utility.yul\":3480:3485   */\n      0x00\n        /* \"#utility.yul\":3518:3524   */\n      dup2\n        /* \"#utility.yul\":3505:3525   */\n      calldataload\n        /* \"#utility.yul\":3496:3525   */\n      swap1\n      pop\n        /* \"#utility.yul\":3534:3567   */\n      tag_196\n        /* \"#utility.yul\":3561:3566   */\n      dup2\n        /* \"#utility.yul\":3534:3567   */\n      tag_133\n      jump\t// in\n    tag_196:\n        /* \"#utility.yul\":3434:3573   */\n      swap3\n      swap2\n      pop\n      pop\n      jump\t// out\n        /* \"#utility.yul\":3579:3908   */\n    tag_60:\n        /* \"#utility.yul\":3638:3644   */\n      0x00\n        /* \"#utility.yul\":3687:3689   */\n      0x20\n        /* \"#utility.yul\":3675:3684   */\n      dup3\n        /* \"#utility.yul\":3666:3673   */\n      dup5\n        /* \"#utility.yul\":3662:3685   */\n      sub\n        /* \"#utility.yul\":3658:3690   */\n      slt\n        /* \"#utility.yul\":3655:3774   */\n      iszero\n      tag_198\n      jumpi\n        /* \"#utility.yul\":3693:3772   */\n      tag_199\n      tag_122\n      jump\t// in\n    tag_199:\n        /* \"#utility.yul\":3655:3774   */\n    tag_198:\n        /* \"#utility.yul\":3813:3814   */\n      0x00\n        /* \"#utility.yul\":3838:3891   */\n      tag_200\n        /* \"#utility.yul\":3883:3890   */\n      dup5\n        /* \"#utility.yul\":3874:3880   */\n      dup3\n        /* \"#utility.yul\":3863:3872   */\n      dup6\n        /* \"#utility.yul\":3859:3881   */\n      add\n        /* \"#utility.yul\":3838:3891   */\n      tag_134\n      jump\t// in\n    tag_200:\n        /* \"#utility.yul\":3828:3891   */\n      swap2\n      pop\n        /* \"#utility.yul\":3784:3901   */\n      pop\n        /* \"#utility.yul\":3579:3908   */\n      swap3\n      swap2\n      pop\n      pop\n      jump\t// out\n        /* \"#utility.yul\":3914:3974   */\n    tag_135:\n        /* \"#utility.yul\":3942:3945   */\n      0x00\n        /* \"#utility.yul\":3963:3968   */\n      dup2\n        /* \"#utility.yul\":3956:3968   */\n      swap1\n      pop\n        /* \"#utility.yul\":3914:3974   */\n      swap2\n      swap1\n      pop\n      jump\t// out\n        /* \"#utility.yul\":3980:4122   */\n    tag_136:\n        /* \"#utility.yul\":4030:4039   */\n      0x00\n        /* \"#utility.yul\":4063:4116   */\n      tag_203\n        /* \"#utility.yul\":4081:4115   */\n      tag_204\n        /* \"#utility.yul\":4090:4114   */\n      tag_205\n        /* \"#utility.yul\":4108:4113   */\n      dup5\n        /* \"#utility.yul\":4090:4114   */\n      tag_127\n      jump\t// in\n    tag_205:\n        /* \"#utility.yul\":4081:4115   */\n      tag_135\n      jump\t// in\n    tag_204:\n        /* \"#utility.yul\":4063:4116   */\n      tag_127\n      jump\t// in\n    tag_203:\n        /* \"#utility.yul\":4050:4116   */\n      swap1\n      pop\n        /* \"#utility.yul\":3980:4122   */\n      swap2\n      swap1\n      pop\n      jump\t// out\n        /* \"#utility.yul\":4128:4262   */\n    tag_137:\n        /* \"#utility.yul\":4186:4195   */\n      0x00\n        /* \"#utility.yul\":4219:4256   */\n      tag_207\n        /* \"#utility.yul\":4250:4255   */\n      dup3\n        /* \"#utility.yul\":4219:4256   */\n      tag_136\n      jump\t// in\n    tag_207:\n        /* \"#utility.yul\":4206:4256   */\n      swap1\n      pop\n        /* \"#utility.yul\":4128:4262   */\n      swap2\n      swap1\n      pop\n      jump\t// out\n        /* \"#utility.yul\":4268:4427   */\n    tag_138:\n        /* \"#utility.yul\":4343:4352   */\n      0x00\n        /* \"#utility.yul\":4376:4421   */\n      tag_209\n        /* \"#utility.yul\":4415:4420   */\n      dup3\n        /* \"#utility.yul\":4376:4421   */\n      tag_137\n      jump\t// in\n    tag_209:\n        /* \"#utility.yul\":4363:4421   */\n      swap1\n      pop\n        /* \"#utility.yul\":4268:4427   */\n      swap2\n      swap1\n      pop\n      jump\t// out\n        /* \"#utility.yul\":4433:4614   */\n    tag_139:\n        /* \"#utility.yul\":4545:4607   */\n      tag_211\n        /* \"#utility.yul\":4601:4606   */\n      dup2\n        /* \"#utility.yul\":4545:4607   */\n      tag_138\n      jump\t// in\n    tag_211:\n        /* \"#utility.yul\":4540:4543   */\n      dup3\n        /* \"#utility.yul\":4533:4608   */\n      mstore\n        /* \"#utility.yul\":4433:4614   */\n      pop\n      pop\n      jump\t// out\n        /* \"#utility.yul\":4620:4892   */\n    tag_71:\n        /* \"#utility.yul\":4738:4742   */\n      0x00\n        /* \"#utility.yul\":4776:4778   */\n      0x20\n        /* \"#utility.yul\":4765:4774   */\n      dup3\n        /* \"#utility.yul\":4761:4779   */\n      add\n        /* \"#utility.yul\":4753:4779   */\n      swap1\n      pop\n        /* \"#utility.yul\":4789:4885   */\n      tag_213\n        /* \"#utility.yul\":4882:4883   */\n      0x00\n        /* \"#utility.yul\":4871:4880   */\n      dup4\n        /* \"#utility.yul\":4867:4884   */\n      add\n        /* \"#utility.yul\":4858:4864   */\n      dup5\n        /* \"#utility.yul\":4789:4885   */\n      tag_139\n      jump\t// in\n    tag_213:\n        /* \"#utility.yul\":4620:4892   */\n      swap3\n      swap2\n      pop\n      pop\n      jump\t// out\n        /* \"#utility.yul\":4898:5120   */\n    tag_76:\n        /* \"#utility.yul\":4991:4995   */\n      0x00\n        /* \"#utility.yul\":5029:5031   */\n      0x20\n        /* \"#utility.yul\":5018:5027   */\n      dup3\n        /* \"#utility.yul\":5014:5032   */\n      add\n        /* \"#utility.yul\":5006:5032   */\n      swap1\n      pop\n        /* \"#utility.yul\":5042:5113   */\n      tag_215\n        /* \"#utility.yul\":5110:5111   */\n      0x00\n        /* \"#utility.yul\":5099:5108   */\n      dup4\n        /* \"#utility.yul\":5095:5112   */\n      add\n        /* \"#utility.yul\":5086:5092   */\n      dup5\n        /* \"#utility.yul\":5042:5113   */\n      tag_129\n      jump\t// in\n    tag_215:\n        /* \"#utility.yul\":4898:5120   */\n      swap3\n      swap2\n      pop\n      pop\n      jump\t// out\n        /* \"#utility.yul\":5126:5295   */\n    tag_140:\n        /* \"#utility.yul\":5210:5221   */\n      0x00\n        /* \"#utility.yul\":5244:5250   */\n      dup3\n        /* \"#utility.yul\":5239:5242   */\n      dup3\n        /* \"#utility.yul\":5232:5251   */\n      mstore\n        /* \"#utility.yul\":5284:5288   */\n      0x20\n        /* \"#utility.yul\":5279:5282   */\n      dup3\n        /* \"#utility.yul\":5275:5289   */\n      add\n        /* \"#utility.yul\":5260:5289   */\n      swap1\n      pop\n        /* \"#utility.yul\":5126:5295   */\n      swap3\n      swap2\n      pop\n      pop\n      jump\t// out\n        /* \"#utility.yul\":5301:5483   */\n    tag_141:\n        /* \"#utility.yul\":5441:5475   */\n      0x446561646c696e652073686f756c6420626520696e2074686520667574757265\n        /* \"#utility.yul\":5437:5438   */\n      0x00\n        /* \"#utility.yul\":5429:5435   */\n      dup3\n        /* \"#utility.yul\":5425:5439   */\n      add\n        /* \"#utility.yul\":5418:5476   */\n      mstore\n        /* \"#utility.yul\":5301:5483   */\n      pop\n      jump\t// out\n        /* \"#utility.yul\":5489:5855   */\n    tag_142:\n        /* \"#utility.yul\":5631:5634   */\n      0x00\n        /* \"#utility.yul\":5652:5719   */\n      tag_219\n        /* \"#utility.yul\":5716:5718   */\n      0x20\n        /* \"#utility.yul\":5711:5714   */\n      dup4\n        /* \"#utility.yul\":5652:5719   */\n      tag_140\n      jump\t// in\n    tag_219:\n        /* \"#utility.yul\":5645:5719   */\n      swap2\n      pop\n        /* \"#utility.yul\":5728:5821   */\n      tag_220\n        /* \"#utility.yul\":5817:5820   */\n      dup3\n        /* \"#utility.yul\":5728:5821   */\n      tag_141\n      jump\t// in\n    tag_220:\n        /* \"#utility.yul\":5846:5848   */\n      0x20\n        /* \"#utility.yul\":5841:5844   */\n      dup3\n        /* \"#utility.yul\":5837:5849   */\n      add\n        /* \"#utility.yul\":5830:5849   */\n      swap1\n      pop\n        /* \"#utility.yul\":5489:5855   */\n      swap2\n      swap1\n      pop\n      jump\t// out\n        /* \"#utility.yul\":5861:6280   */\n    tag_80:\n        /* \"#utility.yul\":6027:6031   */\n      0x00\n        /* \"#utility.yul\":6065:6067   */\n      0x20\n        /* \"#utility.yul\":6054:6063   */\n      dup3\n        /* \"#utility.yul\":6050:6068   */\n      add\n        /* \"#utility.yul\":6042:6068   */\n      swap1\n      pop\n        /* \"#utility.yul\":6114:6123   */\n      dup2\n        /* \"#utility.yul\":6108:6112   */\n      dup2\n        /* \"#utility.yul\":6104:6124   */\n      sub\n        /* \"#utility.yul\":6100:6101   */\n      0x00\n        /* \"#utility.yul\":6089:6098   */\n      dup4\n        /* \"#utility.yul\":6085:6102   */\n      add\n        /* \"#utility.yul\":6078:6125   */\n      mstore\n        /* \"#utility.yul\":6142:6273   */\n      tag_222\n        /* \"#utility.yul\":6268:6272   */\n      dup2\n        /* \"#utility.yul\":6142:6273   */\n      tag_142\n      jump\t// in\n    tag_222:\n        /* \"#utility.yul\":6134:6273   */\n      swap1\n      pop\n        /* \"#utility.yul\":5861:6280   */\n      swap2\n      swap1\n      pop\n      jump\t// out\n        /* \"#utility.yul\":6286:6466   */\n    tag_143:\n        /* \"#utility.yul\":6334:6411   */\n      0x4e487b7100000000000000000000000000000000000000000000000000000000\n        /* \"#utility.yul\":6331:6332   */\n      0x00\n        /* \"#utility.yul\":6324:6412   */\n      mstore\n        /* \"#utility.yul\":6431:6435   */\n      0x11\n        /* \"#utility.yul\":6428:6429   */\n      0x04\n        /* \"#utility.yul\":6421:6436   */\n      mstore\n        /* \"#utility.yul\":6455:6459   */\n      0x24\n        /* \"#utility.yul\":6452:6453   */\n      0x00\n        /* \"#utility.yul\":6445:6460   */\n      revert\n        /* \"#utility.yul\":6472:6705   */\n    tag_82:\n        /* \"#utility.yul\":6511:6514   */\n      0x00\n        /* \"#utility.yul\":6534:6558   */\n      tag_225\n        /* \"#utility.yul\":6552:6557   */\n      dup3\n        /* \"#utility.yul\":6534:6558   */\n      tag_124\n      jump\t// in\n    tag_225:\n        /* \"#utility.yul\":6525:6558   */\n      swap2\n      pop\n        /* \"#utility.yul\":6580:6646   */\n      0xffffffffffffffffffffffffffffffffffffffffffffffffffffffffffffffff\n        /* \"#utility.yul\":6573:6578   */\n      dup3\n        /* \"#utility.yul\":6570:6647   */\n      sub\n        /* \"#utility.yul\":6567:6670   */\n      tag_226\n      jumpi\n        /* \"#utility.yul\":6650:6668   */\n      tag_227\n      tag_143\n      jump\t// in\n    tag_227:\n        /* \"#utility.yul\":6567:6670   */\n    tag_226:\n        /* \"#utility.yul\":6697:6698   */\n      0x01\n        /* \"#utility.yul\":6690:6695   */\n      dup3\n        /* \"#utility.yul\":6686:6699   */\n      add\n        /* \"#utility.yul\":6679:6699   */\n      swap1\n      pop\n        /* \"#utility.yul\":6472:6705   */\n      swap2\n      swap1\n      pop\n      jump\t// out\n        /* \"#utility.yul\":6711:7264   */\n    tag_85:\n        /* \"#utility.yul\":6888:6892   */\n      0x00\n        /* \"#utility.yul\":6926:6929   */\n      0x80\n        /* \"#utility.yul\":6915:6924   */\n      dup3\n        /* \"#utility.yul\":6911:6930   */\n      add\n        /* \"#utility.yul\":6903:6930   */\n      swap1\n      pop\n        /* \"#utility.yul\":6940:7011   */\n      tag_229\n        /* \"#utility.yul\":7008:7009   */\n      0x00\n        /* \"#utility.yul\":6997:7006   */\n      dup4\n        /* \"#utility.yul\":6993:7010   */\n      add\n        /* \"#utility.yul\":6984:6990   */\n      dup8\n        /* \"#utility.yul\":6940:7011   */\n      tag_130\n      jump\t// in\n    tag_229:\n        /* \"#utility.yul\":7021:7093   */\n      tag_230\n        /* \"#utility.yul\":7089:7091   */\n      0x20\n        /* \"#utility.yul\":7078:7087   */\n      dup4\n        /* \"#utility.yul\":7074:7092   */\n      add\n        /* \"#utility.yul\":7065:7071   */\n      dup7\n        /* \"#utility.yul\":7021:7093   */\n      tag_129\n      jump\t// in\n    tag_230:\n        /* \"#utility.yul\":7103:7175   */\n      tag_231\n        /* \"#utility.yul\":7171:7173   */\n      0x40\n        /* \"#utility.yul\":7160:7169   */\n      dup4\n        /* \"#utility.yul\":7156:7174   */\n      add\n        /* \"#utility.yul\":7147:7153   */\n      dup6\n        /* \"#utility.yul\":7103:7175   */\n      tag_130\n      jump\t// in\n    tag_231:\n        /* \"#utility.yul\":7185:7257   */\n      tag_232\n        /* \"#utility.yul\":7253:7255   */\n      0x60\n        /* \"#utility.yul\":7242:7251   */\n      dup4\n        /* \"#utility.yul\":7238:7256   */\n      add\n        /* \"#utility.yul\":7229:7235   */\n      dup5\n        /* \"#utility.yul\":7185:7257   */\n      tag_130\n      jump\t// in\n    tag_232:\n        /* \"#utility.yul\":6711:7264   */\n      swap6\n      swap5\n      pop\n      pop\n      pop\n      pop\n      pop\n      jump\t// out\n        /* \"#utility.yul\":7270:7501   */\n    tag_144:\n        /* \"#utility.yul\":7410:7444   */\n      0x4f6e6c792070726f6a6563742063726561746f722063616e20706572666f726d\n        /* \"#utility.yul\":7406:7407   */\n      0x00\n        /* \"#utility.yul\":7398:7404   */\n      dup3\n        /* \"#utility.yul\":7394:7408   */\n      add\n        /* \"#utility.yul\":7387:7445   */\n      mstore\n        /* \"#utility.yul\":7479:7493   */\n      0x207468697320616374696f6e0000000000000000000000000000000000000000\n        /* \"#utility.yul\":7474:7476   */\n      0x20\n        /* \"#utility.yul\":7466:7472   */\n      dup3\n        /* \"#utility.yul\":7462:7477   */\n      add\n        /* \"#utility.yul\":7455:7494   */\n      mstore\n        /* \"#utility.yul\":7270:7501   */\n      pop\n      jump\t// out\n        /* \"#utility.yul\":7507:7873   */\n    tag_145:\n        /* \"#utility.yul\":7649:7652   */\n      0x00\n        /* \"#utility.yul\":7670:7737   */\n      tag_235\n        /* \"#utility.yul\":7734:7736   */\n      0x2c\n        /* \"#utility.yul\":7729:7732   */\n      dup4\n        /* \"#utility.yul\":7670:7737   */\n      tag_140\n      jump\t// in\n    tag_235:\n        /* \"#utility.yul\":7663:7737   */\n      swap2\n      pop\n        /* \"#utility.yul\":7746:7839   */\n      tag_236\n        /* \"#utility.yul\":7835:7838   */\n      dup3\n        /* \"#utility.yul\":7746:7839   */\n      tag_144\n      jump\t// in\n    tag_236:\n        /* \"#utility.yul\":7864:7866   */\n      0x40\n        /* \"#utility.yul\":7859:7862   */\n      dup3\n        /* \"#utility.yul\":7855:7867   */\n      add\n        /* \"#utility.yul\":7848:7867   */\n      swap1\n      pop\n        /* \"#utility.yul\":7507:7873   */\n      swap2\n      swap1\n      pop\n      jump\t// out\n        /* \"#utility.yul\":7879:8298   */\n    tag_95:\n        /* \"#utility.yul\":8045:8049   */\n      0x00\n        /* \"#utility.yul\":8083:8085   */\n      0x20\n        /* \"#utility.yul\":8072:8081   */\n      dup3\n        /* \"#utility.yul\":8068:8086   */\n      add\n        /* \"#utility.yul\":8060:8086   */\n      swap1\n      pop\n        /* \"#utility.yul\":8132:8141   */\n      dup2\n        /* \"#utility.yul\":8126:8130   */\n      dup2\n        /* \"#utility.yul\":8122:8142   */\n      sub\n        /* \"#utility.yul\":8118:8119   */\n      0x00\n        /* \"#utility.yul\":8107:8116   */\n      dup4\n        /* \"#utility.yul\":8103:8120   */\n      add\n        /* \"#utility.yul\":8096:8143   */\n      mstore\n        /* \"#utility.yul\":8160:8291   */\n      tag_238\n        /* \"#utility.yul\":8286:8290   */\n      dup2\n        /* \"#utility.yul\":8160:8291   */\n      tag_145\n      jump\t// in\n    tag_238:\n        /* \"#utility.yul\":8152:8291   */\n      swap1\n      pop\n        /* \"#utility.yul\":7879:8298   */\n      swap2\n      swap1\n      pop\n      jump\t// out\n        /* \"#utility.yul\":8304:8541   */\n    tag_146:\n        /* \"#utility.yul\":8444:8478   */\n      0x4e657720646561646c696e65206d757374206265206772656174657220746861\n        /* \"#utility.yul\":8440:8441   */\n      0x00\n        /* \"#utility.yul\":8432:8438   */\n      dup3\n        /* \"#utility.yul\":8428:8442   */\n      add\n        /* \"#utility.yul\":8421:8479   */\n      mstore\n        /* \"#utility.yul\":8513:8533   */\n      0x6e2063757272656e7420646561646c696e650000000000000000000000000000\n        /* \"#utility.yul\":8508:8510   */\n      0x20\n        /* \"#utility.yul\":8500:8506   */\n      dup3\n        /* \"#utility.yul\":8496:8511   */\n      add\n        /* \"#utility.yul\":8489:8534   */\n      mstore\n        /* \"#utility.yul\":8304:8541   */\n      pop\n      jump\t// out\n        /* \"#utility.yul\":8547:8913   */\n    tag_147:\n        /* \"#utility.yul\":8689:8692   */\n      0x00\n        /* \"#utility.yul\":8710:8777   */\n      tag_241\n        /* \"#utility.yul\":8774:8776   */\n      0x32\n        /* \"#utility.yul\":8769:8772   */\n      dup4\n        /* \"#utility.yul\":8710:8777   */\n      tag_140\n      jump\t// in\n    tag_241:\n        /* \"#utility.yul\":8703:8777   */\n      swap2\n      pop\n        /* \"#utility.yul\":8786:8879   */\n      tag_242\n        /* \"#utility.yul\":8875:8878   */\n      dup3\n        /* \"#utility.yul\":8786:8879   */\n      tag_146\n      jump\t// in\n    tag_242:\n        /* \"#utility.yul\":8904:8906   */\n      0x40\n        /* \"#utility.yul\":8899:8902   */\n      dup3\n        /* \"#utility.yul\":8895:8907   */\n      add\n        /* \"#utility.yul\":8888:8907   */\n      swap1\n      pop\n        /* \"#utility.yul\":8547:8913   */\n      swap2\n      swap1\n      pop\n      jump\t// out\n        /* \"#utility.yul\":8919:9338   */\n    tag_99:\n        /* \"#utility.yul\":9085:9089   */\n      0x00\n        /* \"#utility.yul\":9123:9125   */\n      0x20\n        /* \"#utility.yul\":9112:9121   */\n      dup3\n        /* \"#utility.yul\":9108:9126   */\n      add\n        /* \"#utility.yul\":9100:9126   */\n      swap1\n      pop\n        /* \"#utility.yul\":9172:9181   */\n      dup2\n        /* \"#utility.yul\":9166:9170   */\n      dup2\n        /* \"#utility.yul\":9162:9182   */\n      sub\n        /* \"#utility.yul\":9158:9159   */\n      0x00\n        /* \"#utility.yul\":9147:9156   */\n      dup4\n        /* \"#utility.yul\":9143:9160   */\n      add\n        /* \"#utility.yul\":9136:9183   */\n      mstore\n        /* \"#utility.yul\":9200:9331   */\n      tag_244\n        /* \"#utility.yul\":9326:9330   */\n      dup2\n        /* \"#utility.yul\":9200:9331   */\n      tag_147\n      jump\t// in\n    tag_244:\n        /* \"#utility.yul\":9192:9331   */\n      swap1\n      pop\n        /* \"#utility.yul\":8919:9338   */\n      swap2\n      swap1\n      pop\n      jump\t// out\n        /* \"#utility.yul\":9344:9676   */\n    tag_101:\n        /* \"#utility.yul\":9465:9469   */\n      0x00\n        /* \"#utility.yul\":9503:9505   */\n      0x40\n        /* \"#utility.yul\":9492:9501   */\n      dup3\n        /* \"#utility.yul\":9488:9506   */\n      add\n        /* \"#utility.yul\":9480:9506   */\n      swap1\n      pop\n        /* \"#utility.yul\":9516:9587   */\n      tag_246\n        /* \"#utility.yul\":9584:9585   */\n      0x00\n        /* \"#utility.yul\":9573:9582   */\n      dup4\n        /* \"#utility.yul\":9569:9586   */\n      add\n        /* \"#utility.yul\":9560:9566   */\n      dup6\n        /* \"#utility.yul\":9516:9587   */\n      tag_130\n      jump\t// in\n    tag_246:\n        /* \"#utility.yul\":9597:9669   */\n      tag_247\n        /* \"#utility.yul\":9665:9667   */\n      0x20\n        /* \"#utility.yul\":9654:9663   */\n      dup4\n        /* \"#utility.yul\":9650:9668   */\n      add\n        /* \"#utility.yul\":9641:9647   */\n      dup5\n        /* \"#utility.yul\":9597:9669   */\n      tag_130\n      jump\t// in\n    tag_247:\n        /* \"#utility.yul\":9344:9676   */\n      swap4\n      swap3\n      pop\n      pop\n      pop\n      jump\t// out\n        /* \"#utility.yul\":9682:9864   */\n    tag_148:\n        /* \"#utility.yul\":9822:9856   */\n      0x50726f6a6563742066756e64696e6720706572696f642068617320656e646564\n        /* \"#utility.yul\":9818:9819   */\n      0x00\n        /* \"#utility.yul\":9810:9816   */\n      dup3\n        /* \"#utility.yul\":9806:9820   */\n      add\n        /* \"#utility.yul\":9799:9857   */\n      mstore\n        /* \"#utility.yul\":9682:9864   */\n      pop\n      jump\t// out\n        /* \"#utility.yul\":9870:10236   */\n    tag_149:\n        /* \"#utility.yul\":10012:10015   */\n      0x00\n        /* \"#utility.yul\":10033:10100   */\n      tag_250\n        /* \"#utility.yul\":10097:10099   */\n      0x20\n        /* \"#utility.yul\":10092:10095   */\n      dup4\n        /* \"#utility.yul\":10033:10100   */\n      tag_140\n      jump\t// in\n    tag_250:\n        /* \"#utility.yul\":10026:10100   */\n      swap2\n      pop\n        /* \"#utility.yul\":10109:10202   */\n      tag_251\n        /* \"#utility.yul\":10198:10201   */\n      dup3\n        /* \"#utility.yul\":10109:10202   */\n      tag_148\n      jump\t// in\n    tag_251:\n        /* \"#utility.yul\":10227:10229   */\n      0x20\n        /* \"#utility.yul\":10222:10225   */\n      dup3\n        /* \"#utility.yul\":10218:10230   */\n      add\n        /* \"#utility.yul\":10211:10230   */\n      swap1\n      pop\n        /* \"#utility.yul\":9870:10236   */\n      swap2\n      swap1\n      pop\n      jump\t// out\n        /* \"#utility.yul\":10242:10661   */\n    tag_105:\n        /* \"#utility.yul\":10408:10412   */\n      0x00\n        /* \"#utility.yul\":10446:10448   */\n      0x20\n        /* \"#utility.yul\":10435:10444   */\n      dup3\n        /* \"#utility.yul\":10431:10449   */\n      add\n        /* \"#utility.yul\":10423:10449   */\n      swap1\n      pop\n        /* \"#utility.yul\":10495:10504   */\n      dup2\n        /* \"#utility.yul\":10489:10493   */\n      dup2\n        /* \"#utility.yul\":10485:10505   */\n      sub\n        /* \"#utility.yul\":10481:10482   */\n      0x00\n        /* \"#utility.yul\":10470:10479   */\n      dup4\n        /* \"#utility.yul\":10466:10483   */\n      add\n        /* \"#utility.yul\":10459:10506   */\n      mstore\n        /* \"#utility.yul\":10523:10654   */\n      tag_253\n        /* \"#utility.yul\":10649:10653   */\n      dup2\n        /* \"#utility.yul\":10523:10654   */\n      tag_149\n      jump\t// in\n    tag_253:\n        /* \"#utility.yul\":10515:10654   */\n      swap1\n      pop\n        /* \"#utility.yul\":10242:10661   */\n      swap2\n      swap1\n      pop\n      jump\t// out\n        /* \"#utility.yul\":10667:10839   */\n    tag_150:\n        /* \"#utility.yul\":10807:10831   */\n      0x50726f6a65637420616c72656164792066756e64656400000000000000000000\n        /* \"#utility.yul\":10803:10804   */\n      0x00\n        /* \"#utility.yul\":10795:10801   */\n      dup3\n        /* \"#utility.yul\":10791:10805   */\n      add\n        /* \"#utility.yul\":10784:10832   */\n      mstore\n        /* \"#utility.yul\":10667:10839   */\n      pop\n      jump\t// out\n        /* \"#utility.yul\":10845:11211   */\n    tag_151:\n        /* \"#utility.yul\":10987:10990   */\n      0x00\n        /* \"#utility.yul\":11008:11075   */\n      tag_256\n        /* \"#utility.yul\":11072:11074   */\n      0x16\n        /* \"#utility.yul\":11067:11070   */\n      dup4\n        /* \"#utility.yul\":11008:11075   */\n      tag_140\n      jump\t// in\n    tag_256:\n        /* \"#utility.yul\":11001:11075   */\n      swap2\n      pop\n        /* \"#utility.yul\":11084:11177   */\n      tag_257\n        /* \"#utility.yul\":11173:11176   */\n      dup3\n        /* \"#utility.yul\":11084:11177   */\n      tag_150\n      jump\t// in\n    tag_257:\n        /* \"#utility.yul\":11202:11204   */\n      0x20\n        /* \"#utility.yul\":11197:11200   */\n      dup3\n        /* \"#utility.yul\":11193:11205   */\n      add\n        /* \"#utility.yul\":11186:11205   */\n      swap1\n      pop\n        /* \"#utility.yul\":10845:11211   */\n      swap2\n      swap1\n      pop\n      jump\t// out\n        /* \"#utility.yul\":11217:11636   */\n    tag_108:\n        /* \"#utility.yul\":11383:11387   */\n      0x00\n        /* \"#utility.yul\":11421:11423   */\n      0x20\n        /* \"#utility.yul\":11410:11419   */\n      dup3\n        /* \"#utility.yul\":11406:11424   */\n      add\n        /* \"#utility.yul\":11398:11424   */\n      swap1\n      pop\n        /* \"#utility.yul\":11470:11479   */\n      dup2\n        /* \"#utility.yul\":11464:11468   */\n      dup2\n        /* \"#utility.yul\":11460:11480   */\n      sub\n        /* \"#utility.yul\":11456:11457   */\n      0x00\n        /* \"#utility.yul\":11445:11454   */\n      dup4\n        /* \"#utility.yul\":11441:11458   */\n      add\n        /* \"#utility.yul\":11434:11481   */\n      mstore\n        /* \"#utility.yul\":11498:11629   */\n      tag_259\n        /* \"#utility.yul\":11624:11628   */\n      dup2\n        /* \"#utility.yul\":11498:11629   */\n      tag_151\n      jump\t// in\n    tag_259:\n        /* \"#utility.yul\":11490:11629   */\n      swap1\n      pop\n        /* \"#utility.yul\":11217:11636   */\n      swap2\n      swap1\n      pop\n      jump\t// out\n        /* \"#utility.yul\":11642:11822   */\n    tag_152:\n        /* \"#utility.yul\":11690:11767   */\n      0x4e487b7100000000000000000000000000000000000000000000000000000000\n        /* \"#utility.yul\":11687:11688   */\n      0x00\n        /* \"#utility.yul\":11680:11768   */\n      mstore\n        /* \"#utility.yul\":11787:11791   */\n      0x12\n        /* \"#utility.yul\":11784:11785   */\n      0x04\n        /* \"#utility.yul\":11777:11792   */\n      mstore\n        /* \"#utility.yul\":11811:11815   */\n      0x24\n        /* \"#utility.yul\":11808:11809   */\n      0x00\n        /* \"#utility.yul\":11801:11816   */\n      revert\n        /* \"#utility.yul\":11828:12013   */\n    tag_110:\n        /* \"#utility.yul\":11868:11869   */\n      0x00\n        /* \"#utility.yul\":11885:11905   */\n      tag_262\n        /* \"#utility.yul\":11903:11904   */\n      dup3\n        /* \"#utility.yul\":11885:11905   */\n      tag_124\n      jump\t// in\n    tag_262:\n        /* \"#utility.yul\":11880:11905   */\n      swap2\n      pop\n        /* \"#utility.yul\":11919:11939   */\n      tag_263\n        /* \"#utility.yul\":11937:11938   */\n      dup4\n        /* \"#utility.yul\":11919:11939   */\n      tag_124\n      jump\t// in\n    tag_263:\n        /* \"#utility.yul\":11914:11939   */\n      swap3\n      pop\n        /* \"#utility.yul\":11958:11959   */\n      dup3\n        /* \"#utility.yul\":11948:11983   */\n      tag_264\n      jumpi\n        /* \"#utility.yul\":11963:11981   */\n      tag_265\n      tag_152\n      jump\t// in\n    tag_265:\n        /* \"#utility.yul\":11948:11983   */\n    tag_264:\n        /* \"#utility.yul\":12005:12006   */\n      dup3\n        /* \"#utility.yul\":12002:12003   */\n      dup3\n        /* \"#utility.yul\":11998:12007   */\n      div\n        /* \"#utility.yul\":11993:12007   */\n      swap1\n      pop\n        /* \"#utility.yul\":11828:12013   */\n      swap3\n      swap2\n      pop\n      pop\n      jump\t// out\n        /* \"#utility.yul\":12019:12213   */\n    tag_112:\n        /* \"#utility.yul\":12059:12063   */\n      0x00\n        /* \"#utility.yul\":12079:12099   */\n      tag_267\n        /* \"#utility.yul\":12097:12098   */\n      dup3\n        /* \"#utility.yul\":12079:12099   */\n      tag_124\n      jump\t// in\n    tag_267:\n        /* \"#utility.yul\":12074:12099   */\n      swap2\n      pop\n        /* \"#utility.yul\":12113:12133   */\n      tag_268\n        /* \"#utility.yul\":12131:12132   */\n      dup4\n        /* \"#utility.yul\":12113:12133   */\n      tag_124\n      jump\t// in\n    tag_268:\n        /* \"#utility.yul\":12108:12133   */\n      swap3\n      pop\n        /* \"#utility.yul\":12157:12158   */\n      dup3\n        /* \"#utility.yul\":12154:12155   */\n      dup3\n        /* \"#utility.yul\":12150:12159   */\n      sub\n        /* \"#utility.yul\":12142:12159   */\n      swap1\n      pop\n        /* \"#utility.yul\":12181:12182   */\n      dup2\n        /* \"#utility.yul\":12175:12179   */\n      dup2\n        /* \"#utility.yul\":12172:12183   */\n      gt\n        /* \"#utility.yul\":12169:12206   */\n      iszero\n      tag_269\n      jumpi\n        /* \"#utility.yul\":12186:12204   */\n      tag_270\n      tag_143\n      jump\t// in\n    tag_270:\n        /* \"#utility.yul\":12169:12206   */\n    tag_269:\n        /* \"#utility.yul\":12019:12213   */\n      swap3\n      swap2\n      pop\n      pop\n      jump\t// out\n        /* \"#utility.yul\":12219:12410   */\n    tag_114:\n        /* \"#utility.yul\":12259:12262   */\n      0x00\n        /* \"#utility.yul\":12278:12298   */\n      tag_272\n        /* \"#utility.yul\":12296:12297   */\n      dup3\n        /* \"#utility.yul\":12278:12298   */\n      tag_124\n      jump\t// in\n    tag_272:\n        /* \"#utility.yul\":12273:12298   */\n      swap2\n      pop\n        /* \"#utility.yul\":12312:12332   */\n      tag_273\n        /* \"#utility.yul\":12330:12331   */\n      dup4\n        /* \"#utility.yul\":12312:12332   */\n      tag_124\n      jump\t// in\n    tag_273:\n        /* \"#utility.yul\":12307:12332   */\n      swap3\n      pop\n        /* \"#utility.yul\":12355:12356   */\n      dup3\n        /* \"#utility.yul\":12352:12353   */\n      dup3\n        /* \"#utility.yul\":12348:12357   */\n      add\n        /* \"#utility.yul\":12341:12357   */\n      swap1\n      pop\n        /* \"#utility.yul\":12376:12379   */\n      dup1\n        /* \"#utility.yul\":12373:12374   */\n      dup3\n        /* \"#utility.yul\":12370:12380   */\n      gt\n        /* \"#utility.yul\":12367:12403   */\n      iszero\n      tag_274\n      jumpi\n        /* \"#utility.yul\":12383:12401   */\n      tag_275\n      tag_143\n      jump\t// in\n    tag_275:\n        /* \"#utility.yul\":12367:12403   */\n    tag_274:\n        /* \"#utility.yul\":12219:12410   */\n      swap3\n      swap2\n      pop\n      pop\n      jump\t// out\n\n    auxdata: 0xa2646970667358221220b9ac40d264e142f30869e7ce7ee9a4fffc90a39a670ab25be28b68d58520067d64736f6c63430008190033\n}\n",
				"bytecode": {
					"linkReferences": {},
					"object": "608060405234801561000f575f80fd5b5060405161111438038061111483398181016040528101906100319190610115565b3360055f6101000a81548173ffffffffffffffffffffffffffffffffffffffff021916908373ffffffffffffffffffffffffffffffffffffffff1602179055508060065f6101000a81548173ffffffffffffffffffffffffffffffffffffffff021916908373ffffffffffffffffffffffffffffffffffffffff16021790555050610140565b5f80fd5b5f73ffffffffffffffffffffffffffffffffffffffff82169050919050565b5f6100e4826100bb565b9050919050565b6100f4816100da565b81146100fe575f80fd5b50565b5f8151905061010f816100eb565b92915050565b5f6020828403121561012a576101296100b7565b5b5f61013784828501610101565b91505092915050565b610fc78061014d5f395ff3fe6080604052600436106100c1575f3560e01c80636c563abe1161007e578063a976936811610058578063a976936814610243578063a9cb357f1461027f578063da8909e5146102a9578063f851a440146102d3576100c1565b80636c563abe146101d35780639c361e4e146101ef5780639e1896c614610219576100c1565b806302da667b146100c5578063107046bd146100ed57806312ffb7a71461012f57806324a3b5511461015757806326d55601146101815780632d1fdef6146101ab575b5f80fd5b3480156100d0575f80fd5b506100eb60048036038101906100e69190610953565b6102fd565b005b3480156100f8575f80fd5b50610113600480360381019061010e9190610991565b610453565b6040516101269796959493929190610a24565b60405180910390f35b34801561013a575f80fd5b5061015560048036038101906101509190610991565b6104db565b005b348015610162575f80fd5b5061016b610531565b6040516101789190610a91565b60405180910390f35b34801561018c575f80fd5b5061019561053a565b6040516101a29190610a91565b60405180910390f35b3480156101b6575f80fd5b506101d160048036038101906101cc9190610953565b610543565b005b6101ed60048036038101906101e89190610991565b610684565b005b3480156101fa575f80fd5b506102036108ab565b6040516102109190610a91565b60405180910390f35b348015610224575f80fd5b5061022d6108b1565b60405161023a9190610a91565b60405180910390f35b34801561024e575f80fd5b5061026960048036038101906102649190610ad4565b6108b7565b6040516102769190610a91565b60405180910390f35b34801561028a575f80fd5b506102936108cc565b6040516102a09190610a91565b60405180910390f35b3480156102b4575f80fd5b506102bd6108d2565b6040516102ca9190610b5a565b60405180910390f35b3480156102de575f80fd5b506102e76108f7565b6040516102f49190610b73565b60405180910390f35b42811161033f576040517f08c379a000000000000000000000000000000000000000000000000000000000815260040161033690610be6565b60405180910390fd5b5f60025f81548092919061035290610c31565b9190505590505f805f8381526020019081526020015f20905033815f015f6101000a81548173ffffffffffffffffffffffffffffffffffffffff021916908373ffffffffffffffffffffffffffffffffffffffff16021790555083816001018190555082816003018190555060015f3373ffffffffffffffffffffffffffffffffffffffff1673ffffffffffffffffffffffffffffffffffffffff1681526020019081526020015f205f81548092919061040b90610c31565b91905055507fb5d890eb2df709d2f732ed81f328b444e49c1618ed8d64c53c0a040ec4040e1e823386866040516104459493929190610c78565b60405180910390a150505050565b5f602052805f5260405f205f91509050805f015f9054906101000a900473ffffffffffffffffffffffffffffffffffffffff1690806001015490806002015490806003015490806004015f9054906101000a900460ff16908060040160019054906101000a900473ffffffffffffffffffffffffffffffffffffffff16908060050154905087565b5f805f8381526020019081526020015f209050806003015442101580156105105750806004015f9054906101000a900460ff16155b1561052d5760045f81548092919061052790610c31565b91905055505b5050565b5f600354905090565b5f600454905090565b813373ffffffffffffffffffffffffffffffffffffffff165f808381526020019081526020015f205f015f9054906101000a900473ffffffffffffffffffffffffffffffffffffffff1673ffffffffffffffffffffffffffffffffffffffff16146105e3576040517f08c379a00000000000000000000000000000000000000000000000000000000081526004016105da90610d2b565b60405180910390fd5b5f805f8581526020019081526020015f2090508060030154831161063c576040517f08c379a000000000000000000000000000000000000000000000000000000000815260040161063390610db9565b60405180910390fd5b8281600301819055507f073d5fd87a7e0c2a384727f9aab2e84826370623aba582638b425a417e799a2c8484604051610676929190610dd7565b60405180910390a150505050565b5f805f8381526020019081526020015f209050806003015442106106dd576040517f08c379a00000000000000000000000000000000000000000000000000000000081526004016106d490610e48565b60405180910390fd5b806004015f9054906101000a900460ff161561072e576040517f08c379a000000000000000000000000000000000000000000000000000000000815260040161072590610eb0565b60405180910390fd5b5f60143461073c9190610efb565b90505f813461074b9190610f2b565b905080836002015f8282546107609190610f5e565b9250508190555082600501543411156107c057338360040160016101000a81548173ffffffffffffffffffffffffffffffffffffffff021916908373ffffffffffffffffffffffffffffffffffffffff1602179055503483600501819055505b60065f9054906101000a900473ffffffffffffffffffffffffffffffffffffffff1673ffffffffffffffffffffffffffffffffffffffff166108fc8390811502906040515f60405180830381858888f19350505050158015610824573d5f803e3d5ffd5b507f2c26a9d48bfcf6dc8a28b936f0aa3b166a0119134df865f480007cc6f1a9b1978433348560405161085a9493929190610c78565b60405180910390a182600101548360020154106108a5576001836004015f6101000a81548160ff02191690831515021790555060035f81548092919061089f90610c31565b91905055505b50505050565b60025481565b60045481565b6001602052805f5260405f205f915090505481565b60035481565b60065f9054906101000a900473ffffffffffffffffffffffffffffffffffffffff1681565b60055f9054906101000a900473ffffffffffffffffffffffffffffffffffffffff1681565b5f80fd5b5f819050919050565b61093281610920565b811461093c575f80fd5b50565b5f8135905061094d81610929565b92915050565b5f80604083850312156109695761096861091c565b5b5f6109768582860161093f565b92505060206109878582860161093f565b9150509250929050565b5f602082840312156109a6576109a561091c565b5b5f6109b38482850161093f565b91505092915050565b5f73ffffffffffffffffffffffffffffffffffffffff82169050919050565b5f6109e5826109bc565b9050919050565b6109f5816109db565b82525050565b610a0481610920565b82525050565b5f8115159050919050565b610a1e81610a0a565b82525050565b5f60e082019050610a375f83018a6109ec565b610a4460208301896109fb565b610a5160408301886109fb565b610a5e60608301876109fb565b610a6b6080830186610a15565b610a7860a08301856109ec565b610a8560c08301846109fb565b98975050505050505050565b5f602082019050610aa45f8301846109fb565b92915050565b610ab3816109db565b8114610abd575f80fd5b50565b5f81359050610ace81610aaa565b92915050565b5f60208284031215610ae957610ae861091c565b5b5f610af684828501610ac0565b91505092915050565b5f819050919050565b5f610b22610b1d610b18846109bc565b610aff565b6109bc565b9050919050565b5f610b3382610b08565b9050919050565b5f610b4482610b29565b9050919050565b610b5481610b3a565b82525050565b5f602082019050610b6d5f830184610b4b565b92915050565b5f602082019050610b865f8301846109ec565b92915050565b5f82825260208201905092915050565b7f446561646c696e652073686f756c6420626520696e20746865206675747572655f82015250565b5f610bd0602083610b8c565b9150610bdb82610b9c565b602082019050919050565b5f6020820190508181035f830152610bfd81610bc4565b9050919050565b7f4e487b71000000000000000000000000000000000000000000000000000000005f52601160045260245ffd5b5f610c3b82610920565b91507fffffffffffffffffffffffffffffffffffffffffffffffffffffffffffffffff8203610c6d57610c6c610c04565b5b600182019050919050565b5f608082019050610c8b5f8301876109fb565b610c9860208301866109ec565b610ca560408301856109fb565b610cb260608301846109fb565b95945050505050565b7f4f6e6c792070726f6a6563742063726561746f722063616e20706572666f726d5f8201527f207468697320616374696f6e0000000000000000000000000000000000000000602082015250565b5f610d15602c83610b8c565b9150610d2082610cbb565b604082019050919050565b5f6020820190508181035f830152610d4281610d09565b9050919050565b7f4e657720646561646c696e65206d7573742062652067726561746572207468615f8201527f6e2063757272656e7420646561646c696e650000000000000000000000000000602082015250565b5f610da3603283610b8c565b9150610dae82610d49565b604082019050919050565b5f6020820190508181035f830152610dd081610d97565b9050919050565b5f604082019050610dea5f8301856109fb565b610df760208301846109fb565b9392505050565b7f50726f6a6563742066756e64696e6720706572696f642068617320656e6465645f82015250565b5f610e32602083610b8c565b9150610e3d82610dfe565b602082019050919050565b5f6020820190508181035f830152610e5f81610e26565b9050919050565b7f50726f6a65637420616c72656164792066756e646564000000000000000000005f82015250565b5f610e9a601683610b8c565b9150610ea582610e66565b602082019050919050565b5f6020820190508181035f830152610ec781610e8e565b9050919050565b7f4e487b71000000000000000000000000000000000000000000000000000000005f52601260045260245ffd5b5f610f0582610920565b9150610f1083610920565b925082610f2057610f1f610ece565b5b828204905092915050565b5f610f3582610920565b9150610f4083610920565b9250828203905081811115610f5857610f57610c04565b5b92915050565b5f610f6882610920565b9150610f7383610920565b9250828201905080821115610f8b57610f8a610c04565b5b9291505056fea2646970667358221220b9ac40d264e142f30869e7ce7ee9a4fffc90a39a670ab25be28b68d58520067d64736f6c63430008190033",
					"opcodes": "PUSH1 0x80 PUSH1 0x40 MSTORE CALLVALUE DUP1 ISZERO PUSH2 0xF JUMPI PUSH0 DUP1 REVERT JUMPDEST POP PUSH1 0x40 MLOAD PUSH2 0x1114 CODESIZE SUB DUP1 PUSH2 0x1114 DUP4 CODECOPY DUP2 DUP2 ADD PUSH1 0x40 MSTORE DUP2 ADD SWAP1 PUSH2 0x31 SWAP2 SWAP1 PUSH2 0x115 JUMP JUMPDEST CALLER PUSH1 0x5 PUSH0 PUSH2 0x100 EXP DUP2 SLOAD DUP2 PUSH20 0xFFFFFFFFFFFFFFFFFFFFFFFFFFFFFFFFFFFFFFFF MUL NOT AND SWAP1 DUP4 PUSH20 0xFFFFFFFFFFFFFFFFFFFFFFFFFFFFFFFFFFFFFFFF AND MUL OR SWAP1 SSTORE POP DUP1 PUSH1 0x6 PUSH0 PUSH2 0x100 EXP DUP2 SLOAD DUP2 PUSH20 0xFFFFFFFFFFFFFFFFFFFFFFFFFFFFFFFFFFFFFFFF MUL NOT AND SWAP1 DUP4 PUSH20 0xFFFFFFFFFFFFFFFFFFFFFFFFFFFFFFFFFFFFFFFF AND MUL OR SWAP1 SSTORE POP POP PUSH2 0x140 JUMP JUMPDEST PUSH0 DUP1 REVERT JUMPDEST PUSH0 PUSH20 0xFFFFFFFFFFFFFFFFFFFFFFFFFFFFFFFFFFFFFFFF DUP3 AND SWAP1 POP SWAP2 SWAP1 POP JUMP JUMPDEST PUSH0 PUSH2 0xE4 DUP3 PUSH2 0xBB JUMP JUMPDEST SWAP1 POP SWAP2 SWAP1 POP JUMP JUMPDEST PUSH2 0xF4 DUP2 PUSH2 0xDA JUMP JUMPDEST DUP2 EQ PUSH2 0xFE JUMPI PUSH0 DUP1 REVERT JUMPDEST POP JUMP JUMPDEST PUSH0 DUP2 MLOAD SWAP1 POP PUSH2 0x10F DUP2 PUSH2 0xEB JUMP JUMPDEST SWAP3 SWAP2 POP POP JUMP JUMPDEST PUSH0 PUSH1 0x20 DUP3 DUP5 SUB SLT ISZERO PUSH2 0x12A JUMPI PUSH2 0x129 PUSH2 0xB7 JUMP JUMPDEST JUMPDEST PUSH0 PUSH2 0x137 DUP5 DUP3 DUP6 ADD PUSH2 0x101 JUMP JUMPDEST SWAP2 POP POP SWAP3 SWAP2 POP POP JUMP JUMPDEST PUSH2 0xFC7 DUP1 PUSH2 0x14D PUSH0 CODECOPY PUSH0 RETURN INVALID PUSH1 0x80 PUSH1 0x40 MSTORE PUSH1 0x4 CALLDATASIZE LT PUSH2 0xC1 JUMPI PUSH0 CALLDATALOAD PUSH1 0xE0 SHR DUP1 PUSH4 0x6C563ABE GT PUSH2 0x7E JUMPI DUP1 PUSH4 0xA9769368 GT PUSH2 0x58 JUMPI DUP1 PUSH4 0xA9769368 EQ PUSH2 0x243 JUMPI DUP1 PUSH4 0xA9CB357F EQ PUSH2 0x27F JUMPI DUP1 PUSH4 0xDA8909E5 EQ PUSH2 0x2A9 JUMPI DUP1 PUSH4 0xF851A440 EQ PUSH2 0x2D3 JUMPI PUSH2 0xC1 JUMP JUMPDEST DUP1 PUSH4 0x6C563ABE EQ PUSH2 0x1D3 JUMPI DUP1 PUSH4 0x9C361E4E EQ PUSH2 0x1EF JUMPI DUP1 PUSH4 0x9E1896C6 EQ PUSH2 0x219 JUMPI PUSH2 0xC1 JUMP JUMPDEST DUP1 PUSH4 0x2DA667B EQ PUSH2 0xC5 JUMPI DUP1 PUSH4 0x107046BD EQ PUSH2 0xED JUMPI DUP1 PUSH4 0x12FFB7A7 EQ PUSH2 0x12F JUMPI DUP1 PUSH4 0x24A3B551 EQ PUSH2 0x157 JUMPI DUP1 PUSH4 0x26D55601 EQ PUSH2 0x181 JUMPI DUP1 PUSH4 0x2D1FDEF6 EQ PUSH2 0x1AB JUMPI JUMPDEST PUSH0 DUP1 REVERT JUMPDEST CALLVALUE DUP1 ISZERO PUSH2 0xD0 JUMPI PUSH0 DUP1 REVERT JUMPDEST POP PUSH2 0xEB PUSH1 0x4 DUP1 CALLDATASIZE SUB DUP2 ADD SWAP1 PUSH2 0xE6 SWAP2 SWAP1 PUSH2 0x953 JUMP JUMPDEST PUSH2 0x2FD JUMP JUMPDEST STOP JUMPDEST CALLVALUE DUP1 ISZERO PUSH2 0xF8 JUMPI PUSH0 DUP1 REVERT JUMPDEST POP PUSH2 0x113 PUSH1 0x4 DUP1 CALLDATASIZE SUB DUP2 ADD SWAP1 PUSH2 0x10E SWAP2 SWAP1 PUSH2 0x991 JUMP JUMPDEST PUSH2 0x453 JUMP JUMPDEST PUSH1 0x40 MLOAD PUSH2 0x126 SWAP8 SWAP7 SWAP6 SWAP5 SWAP4 SWAP3 SWAP2 SWAP1 PUSH2 0xA24 JUMP JUMPDEST PUSH1 0x40 MLOAD DUP1 SWAP2 SUB SWAP1 RETURN JUMPDEST CALLVALUE DUP1 ISZERO PUSH2 0x13A JUMPI PUSH0 DUP1 REVERT JUMPDEST POP PUSH2 0x155 PUSH1 0x4 DUP1 CALLDATASIZE SUB DUP2 ADD SWAP1 PUSH2 0x150 SWAP2 SWAP1 PUSH2 0x991 JUMP JUMPDEST PUSH2 0x4DB JUMP JUMPDEST STOP JUMPDEST CALLVALUE DUP1 ISZERO PUSH2 0x162 JUMPI PUSH0 DUP1 REVERT JUMPDEST POP PUSH2 0x16B PUSH2 0x531 JUMP JUMPDEST PUSH1 0x40 MLOAD PUSH2 0x178 SWAP2 SWAP1 PUSH2 0xA91 JUMP JUMPDEST PUSH1 0x40 MLOAD DUP1 SWAP2 SUB SWAP1 RETURN JUMPDEST CALLVALUE DUP1 ISZERO PUSH2 0x18C JUMPI PUSH0 DUP1 REVERT JUMPDEST POP PUSH2 0x195 PUSH2 0x53A JUMP JUMPDEST PUSH1 0x40 MLOAD PUSH2 0x1A2 SWAP2 SWAP1 PUSH2 0xA91 JUMP JUMPDEST PUSH1 0x40 MLOAD DUP1 SWAP2 SUB SWAP1 RETURN JUMPDEST CALLVALUE DUP1 ISZERO PUSH2 0x1B6 JUMPI PUSH0 DUP1 REVERT JUMPDEST POP PUSH2 0x1D1 PUSH1 0x4 DUP1 CALLDATASIZE SUB DUP2 ADD SWAP1 PUSH2 0x1CC SWAP2 SWAP1 PUSH2 0x953 JUMP JUMPDEST PUSH2 0x543 JUMP JUMPDEST STOP JUMPDEST PUSH2 0x1ED PUSH1 0x4 DUP1 CALLDATASIZE SUB DUP2 ADD SWAP1 PUSH2 0x1E8 SWAP2 SWAP1 PUSH2 0x991 JUMP JUMPDEST PUSH2 0x684 JUMP JUMPDEST STOP JUMPDEST CALLVALUE DUP1 ISZERO PUSH2 0x1FA JUMPI PUSH0 DUP1 REVERT JUMPDEST POP PUSH2 0x203 PUSH2 0x8AB JUMP JUMPDEST PUSH1 0x40 MLOAD PUSH2 0x210 SWAP2 SWAP1 PUSH2 0xA91 JUMP JUMPDEST PUSH1 0x40 MLOAD DUP1 SWAP2 SUB SWAP1 RETURN JUMPDEST CALLVALUE DUP1 ISZERO PUSH2 0x224 JUMPI PUSH0 DUP1 REVERT JUMPDEST POP PUSH2 0x22D PUSH2 0x8B1 JUMP JUMPDEST PUSH1 0x40 MLOAD PUSH2 0x23A SWAP2 SWAP1 PUSH2 0xA91 JUMP JUMPDEST PUSH1 0x40 MLOAD DUP1 SWAP2 SUB SWAP1 RETURN JUMPDEST CALLVALUE DUP1 ISZERO PUSH2 0x24E JUMPI PUSH0 DUP1 REVERT JUMPDEST POP PUSH2 0x269 PUSH1 0x4 DUP1 CALLDATASIZE SUB DUP2 ADD SWAP1 PUSH2 0x264 SWAP2 SWAP1 PUSH2 0xAD4 JUMP JUMPDEST PUSH2 0x8B7 JUMP JUMPDEST PUSH1 0x40 MLOAD PUSH2 0x276 SWAP2 SWAP1 PUSH2 0xA91 JUMP JUMPDEST PUSH1 0x40 MLOAD DUP1 SWAP2 SUB SWAP1 RETURN JUMPDEST CALLVALUE DUP1 ISZERO PUSH2 0x28A JUMPI PUSH0 DUP1 REVERT JUMPDEST POP PUSH2 0x293 PUSH2 0x8CC JUMP JUMPDEST PUSH1 0x40 MLOAD PUSH2 0x2A0 SWAP2 SWAP1 PUSH2 0xA91 JUMP JUMPDEST PUSH1 0x40 MLOAD DUP1 SWAP2 SUB SWAP1 RETURN JUMPDEST CALLVALUE DUP1 ISZERO PUSH2 0x2B4 JUMPI PUSH0 DUP1 REVERT JUMPDEST POP PUSH2 0x2BD PUSH2 0x8D2 JUMP JUMPDEST PUSH1 0x40 MLOAD PUSH2 0x2CA SWAP2 SWAP1 PUSH2 0xB5A JUMP JUMPDEST PUSH1 0x40 MLOAD DUP1 SWAP2 SUB SWAP1 RETURN JUMPDEST CALLVALUE DUP1 ISZERO PUSH2 0x2DE JUMPI PUSH0 DUP1 REVERT JUMPDEST POP PUSH2 0x2E7 PUSH2 0x8F7 JUMP JUMPDEST PUSH1 0x40 MLOAD PUSH2 0x2F4 SWAP2 SWAP1 PUSH2 0xB73 JUMP JUMPDEST PUSH1 0x40 MLOAD DUP1 SWAP2 SUB SWAP1 RETURN JUMPDEST TIMESTAMP DUP2 GT PUSH2 0x33F JUMPI PUSH1 0x40 MLOAD PUSH32 0x8C379A000000000000000000000000000000000000000000000000000000000 DUP2 MSTORE PUSH1 0x4 ADD PUSH2 0x336 SWAP1 PUSH2 0xBE6 JUMP JUMPDEST PUSH1 0x40 MLOAD DUP1 SWAP2 SUB SWAP1 REVERT JUMPDEST PUSH0 PUSH1 0x2 PUSH0 DUP2 SLOAD DUP1 SWAP3 SWAP2 SWAP1 PUSH2 0x352 SWAP1 PUSH2 0xC31 JUMP JUMPDEST SWAP2 SWAP1 POP SSTORE SWAP1 POP PUSH0 DUP1 PUSH0 DUP4 DUP2 MSTORE PUSH1 0x20 ADD SWAP1 DUP2 MSTORE PUSH1 0x20 ADD PUSH0 KECCAK256 SWAP1 POP CALLER DUP2 PUSH0 ADD PUSH0 PUSH2 0x100 EXP DUP2 SLOAD DUP2 PUSH20 0xFFFFFFFFFFFFFFFFFFFFFFFFFFFFFFFFFFFFFFFF MUL NOT AND SWAP1 DUP4 PUSH20 0xFFFFFFFFFFFFFFFFFFFFFFFFFFFFFFFFFFFFFFFF AND MUL OR SWAP1 SSTORE POP DUP4 DUP2 PUSH1 0x1 ADD DUP2 SWAP1 SSTORE POP DUP3 DUP2 PUSH1 0x3 ADD DUP2 SWAP1 SSTORE POP PUSH1 0x1 PUSH0 CALLER PUSH20 0xFFFFFFFFFFFFFFFFFFFFFFFFFFFFFFFFFFFFFFFF AND PUSH20 0xFFFFFFFFFFFFFFFFFFFFFFFFFFFFFFFFFFFFFFFF AND DUP2 MSTORE PUSH1 0x20 ADD SWAP1 DUP2 MSTORE PUSH1 0x20 ADD PUSH0 KECCAK256 PUSH0 DUP2 SLOAD DUP1 SWAP3 SWAP2 SWAP1 PUSH2 0x40B SWAP1 PUSH2 0xC31 JUMP JUMPDEST SWAP2 SWAP1 POP SSTORE POP PUSH32 0xB5D890EB2DF709D2F732ED81F328B444E49C1618ED8D64C53C0A040EC4040E1E DUP3 CALLER DUP7 DUP7 PUSH1 0x40 MLOAD PUSH2 0x445 SWAP5 SWAP4 SWAP3 SWAP2 SWAP1 PUSH2 0xC78 JUMP JUMPDEST PUSH1 0x40 MLOAD DUP1 SWAP2 SUB SWAP1 LOG1 POP POP POP POP JUMP JUMPDEST PUSH0 PUSH1 0x20 MSTORE DUP1 PUSH0 MSTORE PUSH1 0x40 PUSH0 KECCAK256 PUSH0 SWAP2 POP SWAP1 POP DUP1 PUSH0 ADD PUSH0 SWAP1 SLOAD SWAP1 PUSH2 0x100 EXP SWAP1 DIV PUSH20 0xFFFFFFFFFFFFFFFFFFFFFFFFFFFFFFFFFFFFFFFF AND SWAP1 DUP1 PUSH1 0x1 ADD SLOAD SWAP1 DUP1 PUSH1 0x2 ADD SLOAD SWAP1 DUP1 PUSH1 0x3 ADD SLOAD SWAP1 DUP1 PUSH1 0x4 ADD PUSH0 SWAP1 SLOAD SWAP1 PUSH2 0x100 EXP SWAP1 DIV PUSH1 0xFF AND SWAP1 DUP1 PUSH1 0x4 ADD PUSH1 0x1 SWAP1 SLOAD SWAP1 PUSH2 0x100 EXP SWAP1 DIV PUSH20 0xFFFFFFFFFFFFFFFFFFFFFFFFFFFFFFFFFFFFFFFF AND SWAP1 DUP1 PUSH1 0x5 ADD SLOAD SWAP1 POP DUP8 JUMP JUMPDEST PUSH0 DUP1 PUSH0 DUP4 DUP2 MSTORE PUSH1 0x20 ADD SWAP1 DUP2 MSTORE PUSH1 0x20 ADD PUSH0 KECCAK256 SWAP1 POP DUP1 PUSH1 0x3 ADD SLOAD TIMESTAMP LT ISZERO DUP1 ISZERO PUSH2 0x510 JUMPI POP DUP1 PUSH1 0x4 ADD PUSH0 SWAP1 SLOAD SWAP1 PUSH2 0x100 EXP SWAP1 DIV PUSH1 0xFF AND ISZERO JUMPDEST ISZERO PUSH2 0x52D JUMPI PUSH1 0x4 PUSH0 DUP2 SLOAD DUP1 SWAP3 SWAP2 SWAP1 PUSH2 0x527 SWAP1 PUSH2 0xC31 JUMP JUMPDEST SWAP2 SWAP1 POP SSTORE POP JUMPDEST POP POP JUMP JUMPDEST PUSH0 PUSH1 0x3 SLOAD SWAP1 POP SWAP1 JUMP JUMPDEST PUSH0 PUSH1 0x4 SLOAD SWAP1 POP SWAP1 JUMP JUMPDEST DUP2 CALLER PUSH20 0xFFFFFFFFFFFFFFFFFFFFFFFFFFFFFFFFFFFFFFFF AND PUSH0 DUP1 DUP4 DUP2 MSTORE PUSH1 0x20 ADD SWAP1 DUP2 MSTORE PUSH1 0x20 ADD PUSH0 KECCAK256 PUSH0 ADD PUSH0 SWAP1 SLOAD SWAP1 PUSH2 0x100 EXP SWAP1 DIV PUSH20 0xFFFFFFFFFFFFFFFFFFFFFFFFFFFFFFFFFFFFFFFF AND PUSH20 0xFFFFFFFFFFFFFFFFFFFFFFFFFFFFFFFFFFFFFFFF AND EQ PUSH2 0x5E3 JUMPI PUSH1 0x40 MLOAD PUSH32 0x8C379A000000000000000000000000000000000000000000000000000000000 DUP2 MSTORE PUSH1 0x4 ADD PUSH2 0x5DA SWAP1 PUSH2 0xD2B JUMP JUMPDEST PUSH1 0x40 MLOAD DUP1 SWAP2 SUB SWAP1 REVERT JUMPDEST PUSH0 DUP1 PUSH0 DUP6 DUP2 MSTORE PUSH1 0x20 ADD SWAP1 DUP2 MSTORE PUSH1 0x20 ADD PUSH0 KECCAK256 SWAP1 POP DUP1 PUSH1 0x3 ADD SLOAD DUP4 GT PUSH2 0x63C JUMPI PUSH1 0x40 MLOAD PUSH32 0x8C379A000000000000000000000000000000000000000000000000000000000 DUP2 MSTORE PUSH1 0x4 ADD PUSH2 0x633 SWAP1 PUSH2 0xDB9 JUMP JUMPDEST PUSH1 0x40 MLOAD DUP1 SWAP2 SUB SWAP1 REVERT JUMPDEST DUP3 DUP2 PUSH1 0x3 ADD DUP2 SWAP1 SSTORE POP PUSH32 0x73D5FD87A7E0C2A384727F9AAB2E84826370623ABA582638B425A417E799A2C DUP5 DUP5 PUSH1 0x40 MLOAD PUSH2 0x676 SWAP3 SWAP2 SWAP1 PUSH2 0xDD7 JUMP JUMPDEST PUSH1 0x40 MLOAD DUP1 SWAP2 SUB SWAP1 LOG1 POP POP POP POP JUMP JUMPDEST PUSH0 DUP1 PUSH0 DUP4 DUP2 MSTORE PUSH1 0x20 ADD SWAP1 DUP2 MSTORE PUSH1 0x20 ADD PUSH0 KECCAK256 SWAP1 POP DUP1 PUSH1 0x3 ADD SLOAD TIMESTAMP LT PUSH2 0x6DD JUMPI PUSH1 0x40 MLOAD PUSH32 0x8C379A000000000000000000000000000000000000000000000000000000000 DUP2 MSTORE PUSH1 0x4 ADD PUSH2 0x6D4 SWAP1 PUSH2 0xE48 JUMP JUMPDEST PUSH1 0x40 MLOAD DUP1 SWAP2 SUB SWAP1 REVERT JUMPDEST DUP1 PUSH1 0x4 ADD PUSH0 SWAP1 SLOAD SWAP1 PUSH2 0x100 EXP SWAP1 DIV PUSH1 0xFF AND ISZERO PUSH2 0x72E JUMPI PUSH1 0x40 MLOAD PUSH32 0x8C379A000000000000000000000000000000000000000000000000000000000 DUP2 MSTORE PUSH1 0x4 ADD PUSH2 0x725 SWAP1 PUSH2 0xEB0 JUMP JUMPDEST PUSH1 0x40 MLOAD DUP1 SWAP2 SUB SWAP1 REVERT JUMPDEST PUSH0 PUSH1 0x14 CALLVALUE PUSH2 0x73C SWAP2 SWAP1 PUSH2 0xEFB JUMP JUMPDEST SWAP1 POP PUSH0 DUP2 CALLVALUE PUSH2 0x74B SWAP2 SWAP1 PUSH2 0xF2B JUMP JUMPDEST SWAP1 POP DUP1 DUP4 PUSH1 0x2 ADD PUSH0 DUP3 DUP3 SLOAD PUSH2 0x760 SWAP2 SWAP1 PUSH2 0xF5E JUMP JUMPDEST SWAP3 POP POP DUP2 SWAP1 SSTORE POP DUP3 PUSH1 0x5 ADD SLOAD CALLVALUE GT ISZERO PUSH2 0x7C0 JUMPI CALLER DUP4 PUSH1 0x4 ADD PUSH1 0x1 PUSH2 0x100 EXP DUP2 SLOAD DUP2 PUSH20 0xFFFFFFFFFFFFFFFFFFFFFFFFFFFFFFFFFFFFFFFF MUL NOT AND SWAP1 DUP4 PUSH20 0xFFFFFFFFFFFFFFFFFFFFFFFFFFFFFFFFFFFFFFFF AND MUL OR SWAP1 SSTORE POP CALLVALUE DUP4 PUSH1 0x5 ADD DUP2 SWAP1 SSTORE POP JUMPDEST PUSH1 0x6 PUSH0 SWAP1 SLOAD SWAP1 PUSH2 0x100 EXP SWAP1 DIV PUSH20 0xFFFFFFFFFFFFFFFFFFFFFFFFFFFFFFFFFFFFFFFF AND PUSH20 0xFFFFFFFFFFFFFFFFFFFFFFFFFFFFFFFFFFFFFFFF AND PUSH2 0x8FC DUP4 SWAP1 DUP2 ISZERO MUL SWAP1 PUSH1 0x40 MLOAD PUSH0 PUSH1 0x40 MLOAD DUP1 DUP4 SUB DUP2 DUP6 DUP9 DUP9 CALL SWAP4 POP POP POP POP ISZERO DUP1 ISZERO PUSH2 0x824 JUMPI RETURNDATASIZE PUSH0 DUP1 RETURNDATACOPY RETURNDATASIZE PUSH0 REVERT JUMPDEST POP PUSH32 0x2C26A9D48BFCF6DC8A28B936F0AA3B166A0119134DF865F480007CC6F1A9B197 DUP5 CALLER CALLVALUE DUP6 PUSH1 0x40 MLOAD PUSH2 0x85A SWAP5 SWAP4 SWAP3 SWAP2 SWAP1 PUSH2 0xC78 JUMP JUMPDEST PUSH1 0x40 MLOAD DUP1 SWAP2 SUB SWAP1 LOG1 DUP3 PUSH1 0x1 ADD SLOAD DUP4 PUSH1 0x2 ADD SLOAD LT PUSH2 0x8A5 JUMPI PUSH1 0x1 DUP4 PUSH1 0x4 ADD PUSH0 PUSH2 0x100 EXP DUP2 SLOAD DUP2 PUSH1 0xFF MUL NOT AND SWAP1 DUP4 ISZERO ISZERO MUL OR SWAP1 SSTORE POP PUSH1 0x3 PUSH0 DUP2 SLOAD DUP1 SWAP3 SWAP2 SWAP1 PUSH2 0x89F SWAP1 PUSH2 0xC31 JUMP JUMPDEST SWAP2 SWAP1 POP SSTORE POP JUMPDEST POP POP POP POP JUMP JUMPDEST PUSH1 0x2 SLOAD DUP2 JUMP JUMPDEST PUSH1 0x4 SLOAD DUP2 JUMP JUMPDEST PUSH1 0x1 PUSH1 0x20 MSTORE DUP1 PUSH0 MSTORE PUSH1 0x40 PUSH0 KECCAK256 PUSH0 SWAP2 POP SWAP1 POP SLOAD DUP2 JUMP JUMPDEST PUSH1 0x3 SLOAD DUP2 JUMP JUMPDEST PUSH1 0x6 PUSH0 SWAP1 SLOAD SWAP1 PUSH2 0x100 EXP SWAP1 DIV PUSH20 0xFFFFFFFFFFFFFFFFFFFFFFFFFFFFFFFFFFFFFFFF AND DUP2 JUMP JUMPDEST PUSH1 0x5 PUSH0 SWAP1 SLOAD SWAP1 PUSH2 0x100 EXP SWAP1 DIV PUSH20 0xFFFFFFFFFFFFFFFFFFFFFFFFFFFFFFFFFFFFFFFF AND DUP2 JUMP JUMPDEST PUSH0 DUP1 REVERT JUMPDEST PUSH0 DUP2 SWAP1 POP SWAP2 SWAP1 POP JUMP JUMPDEST PUSH2 0x932 DUP2 PUSH2 0x920 JUMP JUMPDEST DUP2 EQ PUSH2 0x93C JUMPI PUSH0 DUP1 REVERT JUMPDEST POP JUMP JUMPDEST PUSH0 DUP2 CALLDATALOAD SWAP1 POP PUSH2 0x94D DUP2 PUSH2 0x929 JUMP JUMPDEST SWAP3 SWAP2 POP POP JUMP JUMPDEST PUSH0 DUP1 PUSH1 0x40 DUP4 DUP6 SUB SLT ISZERO PUSH2 0x969 JUMPI PUSH2 0x968 PUSH2 0x91C JUMP JUMPDEST JUMPDEST PUSH0 PUSH2 0x976 DUP6 DUP3 DUP7 ADD PUSH2 0x93F JUMP JUMPDEST SWAP3 POP POP PUSH1 0x20 PUSH2 0x987 DUP6 DUP3 DUP7 ADD PUSH2 0x93F JUMP JUMPDEST SWAP2 POP POP SWAP3 POP SWAP3 SWAP1 POP JUMP JUMPDEST PUSH0 PUSH1 0x20 DUP3 DUP5 SUB SLT ISZERO PUSH2 0x9A6 JUMPI PUSH2 0x9A5 PUSH2 0x91C JUMP JUMPDEST JUMPDEST PUSH0 PUSH2 0x9B3 DUP5 DUP3 DUP6 ADD PUSH2 0x93F JUMP JUMPDEST SWAP2 POP POP SWAP3 SWAP2 POP POP JUMP JUMPDEST PUSH0 PUSH20 0xFFFFFFFFFFFFFFFFFFFFFFFFFFFFFFFFFFFFFFFF DUP3 AND SWAP1 POP SWAP2 SWAP1 POP JUMP JUMPDEST PUSH0 PUSH2 0x9E5 DUP3 PUSH2 0x9BC JUMP JUMPDEST SWAP1 POP SWAP2 SWAP1 POP JUMP JUMPDEST PUSH2 0x9F5 DUP2 PUSH2 0x9DB JUMP JUMPDEST DUP3 MSTORE POP POP JUMP JUMPDEST PUSH2 0xA04 DUP2 PUSH2 0x920 JUMP JUMPDEST DUP3 MSTORE POP POP JUMP JUMPDEST PUSH0 DUP2 ISZERO ISZERO SWAP1 POP SWAP2 SWAP1 POP JUMP JUMPDEST PUSH2 0xA1E DUP2 PUSH2 0xA0A JUMP JUMPDEST DUP3 MSTORE POP POP JUMP JUMPDEST PUSH0 PUSH1 0xE0 DUP3 ADD SWAP1 POP PUSH2 0xA37 PUSH0 DUP4 ADD DUP11 PUSH2 0x9EC JUMP JUMPDEST PUSH2 0xA44 PUSH1 0x20 DUP4 ADD DUP10 PUSH2 0x9FB JUMP JUMPDEST PUSH2 0xA51 PUSH1 0x40 DUP4 ADD DUP9 PUSH2 0x9FB JUMP JUMPDEST PUSH2 0xA5E PUSH1 0x60 DUP4 ADD DUP8 PUSH2 0x9FB JUMP JUMPDEST PUSH2 0xA6B PUSH1 0x80 DUP4 ADD DUP7 PUSH2 0xA15 JUMP JUMPDEST PUSH2 0xA78 PUSH1 0xA0 DUP4 ADD DUP6 PUSH2 0x9EC JUMP JUMPDEST PUSH2 0xA85 PUSH1 0xC0 DUP4 ADD DUP5 PUSH2 0x9FB JUMP JUMPDEST SWAP9 SWAP8 POP POP POP POP POP POP POP POP JUMP JUMPDEST PUSH0 PUSH1 0x20 DUP3 ADD SWAP1 POP PUSH2 0xAA4 PUSH0 DUP4 ADD DUP5 PUSH2 0x9FB JUMP JUMPDEST SWAP3 SWAP2 POP POP JUMP JUMPDEST PUSH2 0xAB3 DUP2 PUSH2 0x9DB JUMP JUMPDEST DUP2 EQ PUSH2 0xABD JUMPI PUSH0 DUP1 REVERT JUMPDEST POP JUMP JUMPDEST PUSH0 DUP2 CALLDATALOAD SWAP1 POP PUSH2 0xACE DUP2 PUSH2 0xAAA JUMP JUMPDEST SWAP3 SWAP2 POP POP JUMP JUMPDEST PUSH0 PUSH1 0x20 DUP3 DUP5 SUB SLT ISZERO PUSH2 0xAE9 JUMPI PUSH2 0xAE8 PUSH2 0x91C JUMP JUMPDEST JUMPDEST PUSH0 PUSH2 0xAF6 DUP5 DUP3 DUP6 ADD PUSH2 0xAC0 JUMP JUMPDEST SWAP2 POP POP SWAP3 SWAP2 POP POP JUMP JUMPDEST PUSH0 DUP2 SWAP1 POP SWAP2 SWAP1 POP JUMP JUMPDEST PUSH0 PUSH2 0xB22 PUSH2 0xB1D PUSH2 0xB18 DUP5 PUSH2 0x9BC JUMP JUMPDEST PUSH2 0xAFF JUMP JUMPDEST PUSH2 0x9BC JUMP JUMPDEST SWAP1 POP SWAP2 SWAP1 POP JUMP JUMPDEST PUSH0 PUSH2 0xB33 DUP3 PUSH2 0xB08 JUMP JUMPDEST SWAP1 POP SWAP2 SWAP1 POP JUMP JUMPDEST PUSH0 PUSH2 0xB44 DUP3 PUSH2 0xB29 JUMP JUMPDEST SWAP1 POP SWAP2 SWAP1 POP JUMP JUMPDEST PUSH2 0xB54 DUP2 PUSH2 0xB3A JUMP JUMPDEST DUP3 MSTORE POP POP JUMP JUMPDEST PUSH0 PUSH1 0x20 DUP3 ADD SWAP1 POP PUSH2 0xB6D PUSH0 DUP4 ADD DUP5 PUSH2 0xB4B JUMP JUMPDEST SWAP3 SWAP2 POP POP JUMP JUMPDEST PUSH0 PUSH1 0x20 DUP3 ADD SWAP1 POP PUSH2 0xB86 PUSH0 DUP4 ADD DUP5 PUSH2 0x9EC JUMP JUMPDEST SWAP3 SWAP2 POP POP JUMP JUMPDEST PUSH0 DUP3 DUP3 MSTORE PUSH1 0x20 DUP3 ADD SWAP1 POP SWAP3 SWAP2 POP POP JUMP JUMPDEST PUSH32 0x446561646C696E652073686F756C6420626520696E2074686520667574757265 PUSH0 DUP3 ADD MSTORE POP JUMP JUMPDEST PUSH0 PUSH2 0xBD0 PUSH1 0x20 DUP4 PUSH2 0xB8C JUMP JUMPDEST SWAP2 POP PUSH2 0xBDB DUP3 PUSH2 0xB9C JUMP JUMPDEST PUSH1 0x20 DUP3 ADD SWAP1 POP SWAP2 SWAP1 POP JUMP JUMPDEST PUSH0 PUSH1 0x20 DUP3 ADD SWAP1 POP DUP2 DUP2 SUB PUSH0 DUP4 ADD MSTORE PUSH2 0xBFD DUP2 PUSH2 0xBC4 JUMP JUMPDEST SWAP1 POP SWAP2 SWAP1 POP JUMP JUMPDEST PUSH32 0x4E487B7100000000000000000000000000000000000000000000000000000000 PUSH0 MSTORE PUSH1 0x11 PUSH1 0x4 MSTORE PUSH1 0x24 PUSH0 REVERT JUMPDEST PUSH0 PUSH2 0xC3B DUP3 PUSH2 0x920 JUMP JUMPDEST SWAP2 POP PUSH32 0xFFFFFFFFFFFFFFFFFFFFFFFFFFFFFFFFFFFFFFFFFFFFFFFFFFFFFFFFFFFFFFFF DUP3 SUB PUSH2 0xC6D JUMPI PUSH2 0xC6C PUSH2 0xC04 JUMP JUMPDEST JUMPDEST PUSH1 0x1 DUP3 ADD SWAP1 POP SWAP2 SWAP1 POP JUMP JUMPDEST PUSH0 PUSH1 0x80 DUP3 ADD SWAP1 POP PUSH2 0xC8B PUSH0 DUP4 ADD DUP8 PUSH2 0x9FB JUMP JUMPDEST PUSH2 0xC98 PUSH1 0x20 DUP4 ADD DUP7 PUSH2 0x9EC JUMP JUMPDEST PUSH2 0xCA5 PUSH1 0x40 DUP4 ADD DUP6 PUSH2 0x9FB JUMP JUMPDEST PUSH2 0xCB2 PUSH1 0x60 DUP4 ADD DUP5 PUSH2 0x9FB JUMP JUMPDEST SWAP6 SWAP5 POP POP POP POP POP JUMP JUMPDEST PUSH32 0x4F6E6C792070726F6A6563742063726561746F722063616E20706572666F726D PUSH0 DUP3 ADD MSTORE PUSH32 0x207468697320616374696F6E0000000000000000000000000000000000000000 PUSH1 0x20 DUP3 ADD MSTORE POP JUMP JUMPDEST PUSH0 PUSH2 0xD15 PUSH1 0x2C DUP4 PUSH2 0xB8C JUMP JUMPDEST SWAP2 POP PUSH2 0xD20 DUP3 PUSH2 0xCBB JUMP JUMPDEST PUSH1 0x40 DUP3 ADD SWAP1 POP SWAP2 SWAP1 POP JUMP JUMPDEST PUSH0 PUSH1 0x20 DUP3 ADD SWAP1 POP DUP2 DUP2 SUB PUSH0 DUP4 ADD MSTORE PUSH2 0xD42 DUP2 PUSH2 0xD09 JUMP JUMPDEST SWAP1 POP SWAP2 SWAP1 POP JUMP JUMPDEST PUSH32 0x4E657720646561646C696E65206D757374206265206772656174657220746861 PUSH0 DUP3 ADD MSTORE PUSH32 0x6E2063757272656E7420646561646C696E650000000000000000000000000000 PUSH1 0x20 DUP3 ADD MSTORE POP JUMP JUMPDEST PUSH0 PUSH2 0xDA3 PUSH1 0x32 DUP4 PUSH2 0xB8C JUMP JUMPDEST SWAP2 POP PUSH2 0xDAE DUP3 PUSH2 0xD49 JUMP JUMPDEST PUSH1 0x40 DUP3 ADD SWAP1 POP SWAP2 SWAP1 POP JUMP JUMPDEST PUSH0 PUSH1 0x20 DUP3 ADD SWAP1 POP DUP2 DUP2 SUB PUSH0 DUP4 ADD MSTORE PUSH2 0xDD0 DUP2 PUSH2 0xD97 JUMP JUMPDEST SWAP1 POP SWAP2 SWAP1 POP JUMP JUMPDEST PUSH0 PUSH1 0x40 DUP3 ADD SWAP1 POP PUSH2 0xDEA PUSH0 DUP4 ADD DUP6 PUSH2 0x9FB JUMP JUMPDEST PUSH2 0xDF7 PUSH1 0x20 DUP4 ADD DUP5 PUSH2 0x9FB JUMP JUMPDEST SWAP4 SWAP3 POP POP POP JUMP JUMPDEST PUSH32 0x50726F6A6563742066756E64696E6720706572696F642068617320656E646564 PUSH0 DUP3 ADD MSTORE POP JUMP JUMPDEST PUSH0 PUSH2 0xE32 PUSH1 0x20 DUP4 PUSH2 0xB8C JUMP JUMPDEST SWAP2 POP PUSH2 0xE3D DUP3 PUSH2 0xDFE JUMP JUMPDEST PUSH1 0x20 DUP3 ADD SWAP1 POP SWAP2 SWAP1 POP JUMP JUMPDEST PUSH0 PUSH1 0x20 DUP3 ADD SWAP1 POP DUP2 DUP2 SUB PUSH0 DUP4 ADD MSTORE PUSH2 0xE5F DUP2 PUSH2 0xE26 JUMP JUMPDEST SWAP1 POP SWAP2 SWAP1 POP JUMP JUMPDEST PUSH32 0x50726F6A65637420616C72656164792066756E64656400000000000000000000 PUSH0 DUP3 ADD MSTORE POP JUMP JUMPDEST PUSH0 PUSH2 0xE9A PUSH1 0x16 DUP4 PUSH2 0xB8C JUMP JUMPDEST SWAP2 POP PUSH2 0xEA5 DUP3 PUSH2 0xE66 JUMP JUMPDEST PUSH1 0x20 DUP3 ADD SWAP1 POP SWAP2 SWAP1 POP JUMP JUMPDEST PUSH0 PUSH1 0x20 DUP3 ADD SWAP1 POP DUP2 DUP2 SUB PUSH0 DUP4 ADD MSTORE PUSH2 0xEC7 DUP2 PUSH2 0xE8E JUMP JUMPDEST SWAP1 POP SWAP2 SWAP1 POP JUMP JUMPDEST PUSH32 0x4E487B7100000000000000000000000000000000000000000000000000000000 PUSH0 MSTORE PUSH1 0x12 PUSH1 0x4 MSTORE PUSH1 0x24 PUSH0 REVERT JUMPDEST PUSH0 PUSH2 0xF05 DUP3 PUSH2 0x920 JUMP JUMPDEST SWAP2 POP PUSH2 0xF10 DUP4 PUSH2 0x920 JUMP JUMPDEST SWAP3 POP DUP3 PUSH2 0xF20 JUMPI PUSH2 0xF1F PUSH2 0xECE JUMP JUMPDEST JUMPDEST DUP3 DUP3 DIV SWAP1 POP SWAP3 SWAP2 POP POP JUMP JUMPDEST PUSH0 PUSH2 0xF35 DUP3 PUSH2 0x920 JUMP JUMPDEST SWAP2 POP PUSH2 0xF40 DUP4 PUSH2 0x920 JUMP JUMPDEST SWAP3 POP DUP3 DUP3 SUB SWAP1 POP DUP2 DUP2 GT ISZERO PUSH2 0xF58 JUMPI PUSH2 0xF57 PUSH2 0xC04 JUMP JUMPDEST JUMPDEST SWAP3 SWAP2 POP POP JUMP JUMPDEST PUSH0 PUSH2 0xF68 DUP3 PUSH2 0x920 JUMP JUMPDEST SWAP2 POP PUSH2 0xF73 DUP4 PUSH2 0x920 JUMP JUMPDEST SWAP3 POP DUP3 DUP3 ADD SWAP1 POP DUP1 DUP3 GT ISZERO PUSH2 0xF8B JUMPI PUSH2 0xF8A PUSH2 0xC04 JUMP JUMPDEST JUMPDEST SWAP3 SWAP2 POP POP JUMP INVALID LOG2 PUSH5 0x6970667358 0x22 SLT KECCAK256 0xB9 0xAC BLOCKHASH 0xD2 PUSH5 0xE142F30869 0xE7 0xCE PUSH31 0xE9A4FFFC90A39A670AB25BE28B68D58520067D64736F6C6343000819003300 "
				},
				"gasEstimates": {
					"creation": {
						"codeDepositCost": "807800",
						"executionCost": "infinite",
						"totalCost": "infinite"
					},
					"external": {
						"admin()": "2596",
						"checkProjectFundingStatus(uint256)": "infinite",
						"commissionContract()": "infinite",
						"createProject(uint256,uint256)": "infinite",
						"extendDeadline(uint256,uint256)": "infinite",
						"failedProjects()": "2492",
						"fundProject(uint256)": "infinite",
						"getFailedProjectsCount()": "2521",
						"getSuccessfulProjectsCount()": "2499",
						"projects(uint256)": "infinite",
						"projectsCreated(address)": "2824",
						"successfulProjects()": "2469",
						"totalProjects()": "2470"
					}
				},
				"methodIdentifiers": {
					"admin()": "f851a440",
					"checkProjectFundingStatus(uint256)": "12ffb7a7",
					"commissionContract()": "da8909e5",
					"createProject(uint256,uint256)": "02da667b",
					"extendDeadline(uint256,uint256)": "2d1fdef6",
					"failedProjects()": "9e1896c6",
					"fundProject(uint256)": "6c563abe",
					"getFailedProjectsCount()": "26d55601",
					"getSuccessfulProjectsCount()": "24a3b551",
					"projects(uint256)": "107046bd",
					"projectsCreated(address)": "a9769368",
					"successfulProjects()": "a9cb357f",
					"totalProjects()": "9c361e4e"
				}
			},
			"storageLayout": {
				"storage": [
					{
						"astId": 74,
						"contract": "contracts/Crowdfunding.sol:Crowdfunding",
						"label": "projects",
						"offset": 0,
						"slot": "0",
						"type": "t_mapping(t_uint256,t_struct(Project)69_storage)"
					},
					{
						"astId": 78,
						"contract": "contracts/Crowdfunding.sol:Crowdfunding",
						"label": "projectsCreated",
						"offset": 0,
						"slot": "1",
						"type": "t_mapping(t_address,t_uint256)"
					},
					{
						"astId": 80,
						"contract": "contracts/Crowdfunding.sol:Crowdfunding",
						"label": "totalProjects",
						"offset": 0,
						"slot": "2",
						"type": "t_uint256"
					},
					{
						"astId": 82,
						"contract": "contracts/Crowdfunding.sol:Crowdfunding",
						"label": "successfulProjects",
						"offset": 0,
						"slot": "3",
						"type": "t_uint256"
					},
					{
						"astId": 84,
						"contract": "contracts/Crowdfunding.sol:Crowdfunding",
						"label": "failedProjects",
						"offset": 0,
						"slot": "4",
						"type": "t_uint256"
					},
					{
						"astId": 86,
						"contract": "contracts/Crowdfunding.sol:Crowdfunding",
						"label": "admin",
						"offset": 0,
						"slot": "5",
						"type": "t_address"
					},
					{
						"astId": 89,
						"contract": "contracts/Crowdfunding.sol:Crowdfunding",
						"label": "commissionContract",
						"offset": 0,
						"slot": "6",
						"type": "t_contract(Commission)54"
					}
				],
				"types": {
					"t_address": {
						"encoding": "inplace",
						"label": "address",
						"numberOfBytes": "20"
					},
					"t_bool": {
						"encoding": "inplace",
						"label": "bool",
						"numberOfBytes": "1"
					},
					"t_contract(Commission)54": {
						"encoding": "inplace",
						"label": "contract Commission",
						"numberOfBytes": "20"
					},
					"t_mapping(t_address,t_uint256)": {
						"encoding": "mapping",
						"key": "t_address",
						"label": "mapping(address => uint256)",
						"numberOfBytes": "32",
						"value": "t_uint256"
					},
					"t_mapping(t_uint256,t_struct(Project)69_storage)": {
						"encoding": "mapping",
						"key": "t_uint256",
						"label": "mapping(uint256 => struct Crowdfunding.Project)",
						"numberOfBytes": "32",
						"value": "t_struct(Project)69_storage"
					},
					"t_struct(Project)69_storage": {
						"encoding": "inplace",
						"label": "struct Crowdfunding.Project",
						"members": [
							{
								"astId": 56,
								"contract": "contracts/Crowdfunding.sol:Crowdfunding",
								"label": "creator",
								"offset": 0,
								"slot": "0",
								"type": "t_address"
							},
							{
								"astId": 58,
								"contract": "contracts/Crowdfunding.sol:Crowdfunding",
								"label": "goalAmount",
								"offset": 0,
								"slot": "1",
								"type": "t_uint256"
							},
							{
								"astId": 60,
								"contract": "contracts/Crowdfunding.sol:Crowdfunding",
								"label": "currentAmount",
								"offset": 0,
								"slot": "2",
								"type": "t_uint256"
							},
							{
								"astId": 62,
								"contract": "contracts/Crowdfunding.sol:Crowdfunding",
								"label": "deadline",
								"offset": 0,
								"slot": "3",
								"type": "t_uint256"
							},
							{
								"astId": 64,
								"contract": "contracts/Crowdfunding.sol:Crowdfunding",
								"label": "isFunded",
								"offset": 0,
								"slot": "4",
								"type": "t_bool"
							},
							{
								"astId": 66,
								"contract": "contracts/Crowdfunding.sol:Crowdfunding",
								"label": "highestFunder",
								"offset": 1,
								"slot": "4",
								"type": "t_address"
							},
							{
								"astId": 68,
								"contract": "contracts/Crowdfunding.sol:Crowdfunding",
								"label": "highestFundAmount",
								"offset": 0,
								"slot": "5",
								"type": "t_uint256"
							}
						],
						"numberOfBytes": "192"
					},
					"t_uint256": {
						"encoding": "inplace",
						"label": "uint256",
						"numberOfBytes": "32"
					}
				}
			},
			"userdoc": {
				"kind": "user",
				"methods": {},
				"version": 1
			}
		}
	}
}